:100000000C9412020C9459020C9459020C9459024B
:100010000C9459020C9459020C9459020C945902F4
:100020000C9459020C9459020C94BD110C948F122B
:100030000C943B210C9459020C9459020C945902D3
:100040000C9459020C94DA280C9459020C9459021D
:100050000C9459020C94DE200C9459020C94590211
:100060000C9459020C9459020C9459020C945902A4
:100070000C9459020C9459020C9459020C94590294
:100080000C9459020C9459020C9459020C94590284
:100090000C9459020C9459020C9459020C94590274
:1000A0000C9459020C9459020C945902EE03F0037B
:1000B000F203F403F603F803FA03FE030A040F0441
:1000C000130419041E04F605F60504060D060D06B4
:1000D0000D0618062006CB08D508D508DE08DE0870
:1000E000FD08FD08110911099D0B9D0B9D0B9D0B32
:1000F000A00BA00BA00BA30BA30BA30BA30BA30B99
:10010000A30BA60BA60BA60BA60BA60BA60BA90B67
:10011000A90BA90BFC121E130C141E130C14631351
:1001200086130C14DB13EE13AE16AE16DC16DC16BB
:1001300038175617CA19CA197817CA1973187318B5
:100140002E194419CA19B619291E1F202122232449
:100150002526272D2E2A2B141A0815171C180C12C9
:10016000132F303139041607090A0B0D0E0F3334E3
:10017000322879641D1B0619051110363738757D34
:10018000787B7A80802C804C50357E7F657C001097
:1001900060FF0000000001010102020304050506E2
:1001A00007090A0B0C0E0F1112141517191B1D1F2E
:1001B000212325282A2C2F313436393B3E41434612
:1001C000494C4F5255585A5D6164676A6D70737639
:1001D000797C7F8386898C8F9295989B9EA2A5A718
:1001E000AAADB0B3B6B9BCBEC1C4C6C9CBCED0D31C
:1001F000D5D7DADCDEE0E2E4E6E8EAEBEDEEF0F1BA
:10020000F3F4F5F6F8F9FAFAFBFCFDFDFEFEFEFF4D
:10021000FFFF200347004800360030002000420066
:1002200054005F0052004700420020004D006F0064
:10023000640000000A03590041004E00470000001E
:100240000403090409026D00040100A0FA09040076
:1002500000010301010009211101000122400007F2
:1002600005810308000109040100010301020009DE
:100270002111010001224D000705820308000A092F
:100280000402000103000000092111010001221BEA
:10029000000705830308000A0904030001030000A6
:1002A0000009211101000122390007058403200003
:1002B000011201100100000008EDFE606001000164
:1002C00002000105010906A101050719E029E7154A
:1002D0000025019508750181020508190129059578
:1002E0000575019102950175039101050719002912
:1002F000F71500250195F875018102C0050C09016B
:10030000A1018503160100269C021A01002A9C0205
:10031000751095018100C005010902A1010901A123
:1003200000050919012905150025019505750181AB
:1003300002950175038101050109300931158125F7
:100340007F95027508810609381581257F9501750D
:10035000088106050C0A38021581257F950175086C
:100360008106C0C005010906A101050719E029E7BA
:100370001500250195087501810295017508810117
:100380000508190129059505750191029501750367
:1003900091010507190029FF150026FF0095067534
:1003A000088100C000000000000000000000010102
:1003B00001020202030304040505060607080809F2
:1003C0000A0B0B0C0D0E0F10111213151617191A1C
:1003D0001B1D1E2022232527292B2D2F3133353895
:1003E0003A3D3F4244474A4D505356595C5F62661E
:1003F000696C7074777B7E82868A8E9195999DA1B7
:10040000A5A9ADB0B4B8BCC0C3C7CBCED2D5D8DBDC
:10041000DFE2E4E7EAECEFF1F3F5F7F8FAFBFCFDD5
:10042000FEFFFFFF11241FBECFEFDAE0DEBFCDBF1E
:1004300004B603FE27C080913D0390913E03A09136
:100440003F03B09140038730904BA740B04BD1F4AD
:1004500010923D0310923E0310923F03109240030E
:1004600014BE84B7877F84BF0FB6F894A895809197
:100470006000886180936000109260000FBEE0E031
:10048000F8E3099511E0A0E0B1E0E0EDF8E502C085
:1004900005900D92AE33B107D9F723E0AEE3B1E09A
:1004A00001C01D92AD33B207E1F70E945C0D0C94C0
:1004B000662C0C9400000FB680959AE0F8947AE5CB
:1004C0007A95F1F708F08C9A08F48C9886959A95AD
:1004D000B1F70FBE08952EE0929FF0011124E80FAE
:1004E000F11DE85BFE4F9491892F8F7092959F705C
:1004F0000895CF93C82FCB010E946B02282F30E0C4
:1005000080E1989FA0011124422B532B40385105C4
:1005100019F480E090E021C09770E92FF0E088E0C6
:10052000C89FE00DF11D112484E0EE0FFF1F8A9596
:10053000E1F7E20FF31FEE0FFF1FE050F84925919E
:100540003491C9018B7F833E910531F480913F0145
:10055000882311F020E030E0C901CF9108950F9376
:100560001F93CF93DF938C01C62FD42FFC01928170
:10057000662319F0613079F024C0992371F00E944C
:100580000120827231F00E94012080FD02C085E3CB
:1005900010C089E20EC0911105C080913E010E94F9
:1005A00038160DC00E94012082FF02C08DE301C0F9
:1005B00081E280933E0180913E010E94E0150E94FD
:1005C0003E20F8018281882309F44CC0CA30D9F159
:1005D00090F4C230B9F0C33009F044C090913F01AB
:1005E00081E0892780933F0190E0DF91CF911F91B7
:1005F0000F910C94BC05CB3069F1CC3099F583E1B7
:1006000090E02AC00E94012080FF0DC00E94E719DF
:10061000FFEF20E782E0F15020408040E1F700C08A
:1006200000000E9404218FEF0E9404200E943E20BF
:100630008FEF0E940A200E943E20DF91CF911F91F0
:100640000F910C94E7198D2FDF91CF911F910F918E
:100650000C94980888E190E0DF91CF911F910F9161
:100660000C94330DDF91CF911F910F9108950F934B
:100670001F93CF93DF9385B7806885BF85B7806868
:1006800085BF8091E00281608093E0020E944C0867
:100690008AB1807D8AB980B38C7F80BB81B383604F
:1006A00081BB6E98769A8AB18F728AB98BB1806D50
:1006B0008BB987B18F7387B988B1806C88B984B1E1
:1006C000847084B985B18B6F85B90BE811E0C2E401
:1006D000D1E0F801119211928F0110928A010E94CB
:1006E0007020909389018093880180E090E0FE0162
:1006F000E80FF91F108201968E309105C1F72E96F2
:10070000F1E0C838DF0729F7DF91CF911F910F91F2
:100710000895AF92BF92CF92DF92EF92FF920F9324
:100720001F93CF93DF9380918A0181110AC080913A
:100730008801909189010E948820909341018093C3
:1007400040018091400190914101892B09F4C3C07F
:1007500080918A01811106C00E94702090938901C6
:100760008093880180918A01823071F030F488236F
:1007700049F0813051F4519A08C08330D1F084306F
:10078000D1F003C0509A01C0529A40918A01A42F1F
:10079000B0E0B09040018EE0489FA001112420E01D
:1007A00030E091E061E070E0AA0FBB1FA557BE4F9B
:1007B00004C0539AEACF559AE8CFA22EC22ED12C6C
:1007C0008601015011090D30110528F40A5A1F4FF6
:1007D000F8010C940B2C8FB1817034C08FB10BC019
:1007E0008CB128C086B120C086B124C083B122C09C
:1007F00089B116C083B18695817024C0189B08C04A
:10080000E3B00E2C000CFF08E094F0948F2D0DC087
:1008100081E019C083B185FB882780F913C083B1BB
:10082000829581700FC089B18095881F8827881FA5
:100830000AC089B186FB882780F904C083B183FB95
:10084000882780F989278901040F151F0E5B1E4F29
:10085000E801E881FB2CEE0FE82BFA94F110FBCFB6
:10086000E801E8837B0102C0EE0CFF1CAA94E2F7CA
:100870008E2F8F71833061F028F48823A1F08130AE
:1008800009F506C08F3021F08F3111F08730D1F497
:10089000ED91FC91119787010E231F23012B91F4F9
:1008A000EE2AFF2A0CC0ED91FC91119787010E23CF
:1008B0001F23012B39F0E094F094EE22FF221196D1
:1008C000FC92EE922F5F3F4F2E30310509F075CF2D
:1008D0008AB1807D8AB980918A018F5F853018F452
:1008E00080938A0102C010928A0181E0DF91CF914A
:1008F0001F910F91FF90EF90DF90CF90BF90AF903E
:100900000895E82FF0E0EE0FFF1FE557FE4F8081BE
:10091000918108950895229A2A9AA5E9B1E080E08C
:10092000E82FE695F0E0E659FF4FFE2FEE27282F3F
:10093000217030E0E20FF31F459154914D938F5F8A
:10094000883071F708959091040390FD31C0982F7D
:100950009E7009F072988230A9F08330E9F08130FE
:1009600039F580E090E02FEFFC01E45FFC4F21833C
:1009700003968E319105C1F76AE070E08CE093E058
:100980000C94C306ECE0F3E08FEF8083339693E0A2
:10099000EA32F907D1F7F0CF80E090E02FEFFC01C9
:1009A000E45FFC4F228303968E319105C1F7E4CFBB
:1009B000811101C02A9808959091040390FD2EC0E2
:1009C000982F9E7009F4729A8230A1F08330D9F08A
:1009D000813021F580E090E0FC01E45FFC4F118262
:1009E00003968E319105C1F76AE070E08CE093E0E8
:1009F0000C94C306ECE0F3E01082339683E0EA3215
:100A0000F807D1F7F1CF80E090E0FC01E45FFC4F04
:100A1000128203968E319105C1F7E6CF811101C094
:100A20002A9A0895EF92FF920F931F93CF9395E91F
:100A3000E92E91E0F92EC0E0082F10E0F701919126
:100A40007F0180EF890F833078F4980102C03595DB
:100A500027958A95E2F720FF04C08C2F0E94A304FB
:100A600003C08C2F0E94DC04CF5FC83039F7CF91D0
:100A70001F910F91FF90EF9008958F929F92AF92E8
:100A8000BF92EF92FF920F931F93CF934B015C01A4
:100A900005E911E0C0E0EE24E394F12CF801819126
:100AA0008F019FEF980F9730D0F4970102C0220F6B
:100AB000331F8A95E2F7C901092E000CAA0BBB0B64
:100AC00088219921AA21BB21892B8A2B8B2B21F0EC
:100AD0008C2F0E94A30403C08C2F0E94DC04CF5FE4
:100AE000C830E1F6CF911F910F91FF90EF90BF902A
:100AF000AF909F908F9008958F929F92AF92BF92E8
:100B0000EF92FF920F931F93CF934B015C0105E986
:100B100011E0C0E0EE24E394F12CF80181918F0103
:100B200097EF980F9730D8F48850970102C0220FA2
:100B3000331F8A95E2F7C901092E000CAA0BBB0BE3
:100B400088219921AA21BB21892B8A2B8B2B21F06B
:100B50008C2F0E94A30403C08C2F0E94DC04CF5F63
:100B6000C830D9F6CF911F910F91FF90EF90BF90B1
:100B7000AF909F908F900895EF92FF920F931F93E5
:100B8000CF9395E9E92E91E0F92EC0E0082F10E00F
:100B9000F70191917F018BEE890F883078F49801ED
:100BA00002C0359527958A95E2F720FF04C08C2F67
:100BB0000E94A30403C08C2F0E94DC04CF5FC830C6
:100BC00039F7CF911F910F91FF90EF900895CF9338
:100BD000C82F0E943B288C2F90E0FC013197E83011
:100BE000F105D8F5ED59FF4F0C940B2C0E946428A9
:100BF0000E94A5280E94D228EC2FF0E0E257FE4F79
:100C00008491CF910C9474280E94A5280E94D22828
:100C10000E946A288D98CF9108950E9464280E94AE
:100C2000A5280E94CC2886E08C1BCF910C94D72855
:100C30000E9464280E949F280E94D22880E007C05A
:100C40000E9464280E949F280E94D22881E00E946E
:100C5000C22881E0CF910C94C6280E94A5280E944A
:100C6000D22880E00E947428CF910C946A28859A3B
:100C700008958D9808958D9A08951F93CF93DF93CB
:100C800000D000D01F92CDB7DEB7162F0E947C2077
:100C90006093AD017093AE018093AF019093B0016A
:100CA00080913C0380FF20C08E7F8E3041F4112361
:100CB00031F080E20E94C92880E10E949B28809147
:100CC0003C038E7F803181F4112371F080E20E9419
:100CD000C92880E10F900F900F900F900F90DF9137
:100CE000CF911F910C948B280F900F900F900F9025
:100CF0000F90DF91CF911F91089585B7806885BFD0
:100D000085B7806885BF849A879A8F98089581B344
:100D10008095881F8827881F08958F9A08958F9837
:100D2000089521B3342F3095232331B3432B3FB79C
:100D3000F894FC01680F791FE617F70789F0819195
:100D400098E041BB000000C087FF21BB880F000076
:100D500000C000C000C021BB00C09A9591F7ECCF45
:100D60003FBF089520B3242B20BB9B01220F331FCC
:100D7000620F731F0E94910687EC90E00197F1F7D4
:100D800000C00000089540E40C94B206DF92EF9298
:100D9000FF920F931F93CF93DF9300D000D01F9249
:100DA000CDB7DEB7D82EE92EF62E8901642F70E07C
:100DB00080E090E00E94EA2A2DEC3CEC4CEC5FE3F2
:100DC0000E94402A0E94B92A362FE62FF0E06F2DAC
:100DD00070E0D69EA001D79E500D1124852F992733
:100DE000E89FD001E99FB00DF89FB00D112440E0BD
:100DF00051E0461B570B4E9FC0014F9F900D5E9FC9
:100E0000900D11249C839983892F8B0F8D838A8366
:100E10003B1B3B838E2D90E063E070E00E94E32B50
:100E2000FE01E80FF91F3281FE01E80FF91F218151
:100E3000FE01E80FF91F8381F8018183308322834B
:100E40000F900F900F900F900F90DF91CF911F9107
:100E50000F91FF90EF90DF9008958AE090E00C945E
:100E6000192CAB01BC018AE090E00C94372CE4E033
:100E7000F3E088E1808380EA809305038FEF82832B
:100E80008383609104037091050380910603909120
:100E900007030C9431078091040380FF06C06AE0C9
:100EA00070E08CE093E00C94C3066A98729A0895FF
:100EB00020E030E0F901E45FFC4F818360834283EE
:100EC0002D5F3F4F2E313105A9F70C944B07EF9260
:100ED000FF920F931F93CF93DF9300D01F92CDB754
:100EE000DEB70091040310910503209106033091B1
:100EF0000703009308031093090320930A03309318
:100F00000B032091040320FF25C0F42EE62E8C0154
:100F10009E012F5F3F4F0E94C606902F9295990F1A
:100F2000990F907C809108038F73892B809308031D
:100F30001295110F110F107C06950695102B10932A
:100F40000903E0920A03F0920B034B8169818A81C5
:100F50000E9458070F900F900F90DF91CF911F9133
:100F60000F91FF90EF9008950F931F93CF93DF930E
:100F7000D82FC92F062F142F9091040390FF4DC036
:100F8000892F8E73823029F48D2F9C2F0E94670742
:100F90001EC0892F86958F712EE1280F2F71243066
:100FA00018F41091070313C0865E8F71893078F4AE
:100FB000D92FD295D695D695D370C09105038C2F95
:100FC000880F880FD82BC295C695C695C3709D2FE4
:100FD0009295990F990F907C809104038F73892BC0
:100FE00080930403C295CC0FCC0FC07CD695D695C8
:100FF000CD2BC09305030093060310930703609164
:101000000403709105038091060390910703DF911B
:10101000CF911F910F910C943107DF91CF911F91C8
:101020000F9108959091040390FF35C0917C811138
:1010300002C09E6207C0883110F0926003C08F71B9
:10104000880F982B9093040360910403709105031B
:1010500080910603909107030E9431078091040359
:1010600086958F7111F06A9A729880910403829527
:1010700086958695837090910503292F220F220F64
:101080004091070360910603822B92959695969561
:1010900093700C94B40708950E946623811104C0D4
:1010A0000E9447230E9437070E942D076093040384
:1010B0007093050380930603909307036E7311F0FA
:1010C0006E3361F40E9437070E942D07609304037A
:1010D0007093050380930603909307036A9A729AAC
:1010E0008091040380FF04C086958F710C941208D0
:1010F0006A98729A089580910403982F909590FBB6
:1011000080F980930403609104037091050380913A
:101110000603909107030E9431078091040380FF2A
:1011200004C086958F710C9412086A98729A08957B
:10113000CF92DF92EF92FF920F931F93CF93DF93A3
:10114000C82ED0910403D295D695D695D370D09061
:1011500005038D2D880F880FD82BD294D694D69462
:1011600093E0D922E090060340910703042FC0FECC
:1011700002C0CFEF01C0C1E00E94012081FDC195F6
:101180004C2D50E04930510508F05EC0FA01E55998
:10119000FF4F0C940B2CDF91CF911F910F91FF907B
:1011A000EF90DF90CF900C947B089091040396957C
:1011B000892F8F718C0F0E94120846C02091040362
:1011C000229526952695237030910503432F440FD1
:1011D000440F842F822B932F92959695969593701A
:1011E0009D5F24E1C202800D911D112460E073E037
:1011F0000E94F72BD82FD92E2AC08091060391E1A7
:10120000C90270011124E80EF11C2FEFE216F1045F
:1012100009F01CF4F7FC29C01AC0EE24EA94F12C62
:1012200016C08091070391E1C902A00111248A012F
:10123000080F111D0F3F110509F01CF417FD18C010
:1012400006C00FEF10E003C022E02C15A0F4402FE1
:101250006E2D8D2F9D2DDF91CF911F910F91FF90BE
:10126000EF90DF90CF900C94B407E12CF12CEFCFEE
:1012700000E010E0ECCFDF91CF911F910F91FF9034
:10128000EF90DF90CF900895CF93DF9320913A03B2
:10129000FC013081383609F049C0EC01223021F5DB
:1012A00081818A3018F40E9498081EC0833671F438
:1012B0000E94E719FFEF20E782E0F15020408040D4
:1012C000E1F700C000000E9404210EC0893239F00D
:1012D0008A3241F0883241F40E94E62905C00E941A
:1012E000C32902C00E94AC2980913A03833019F4CB
:1012F0008A810E94120880913A03843029F44B813C
:101300006A8189810E94580780913A03853071F47F
:10131000E981EA3058F4F0E08C819B812A812183B5
:1013200090838283DF91CF910C944B07DF91CF9113
:101330000895CF93C82FE091A601F0E0EE56FE4F3E
:10134000449180910403829586958695837090914F
:101350000503292F220F220F60910603822B9295FD
:101360009695969593700E94670780910101209150
:10137000A601C89F200D11242093A6012C1718F454
:1013800081E0809301018C2F90E0820F911D8F37B7
:1013900091051CF08FEF80930101CF910895CF93B9
:1013A000C82FE4E0F3E0438162818091A401909131
:1013B000A5010E9467072091A4013091A501C901F0
:1013C0008C0F911D60E073E00E94E32B9093A501C8
:1013D0008093A401CF910895AF92BF92CF92DF92F4
:1013E000EF92FF920F931F93CF93DF93A82EB82E07
:1013F000B6948CE0E82E83E0F82EC0E0D0E0C12C5B
:1014000093E0D92E2091A2013091A301CE01820F49
:10141000931F00E013E0B6010E94E32B9701409177
:101420000703609106030E94C606E09623E0E20EE1
:10143000F11CC03E41E0D40729F70E944B072091E0
:10144000A2013091A301C901A0FE06C046E0B49EEE
:10145000800D911D112406C09D5F26E0B29E80196B
:1014600091091124B8010E94E32B9093A30180936A
:10147000A201DF91CF911F910F91FF90EF90DF902C
:10148000CF90BF90AF9008958F929F92AF92BF92EE
:10149000CF92DF92EF92FF920F931F93CF93DF9340
:1014A000982F969580FF03C099249A9402C099249E
:1014B00093948091A1018F5F482F50E023E030E0AA
:1014C000291B3109421753071CF48093A10161C005
:1014D0001092A1019CE0E92E93E0F92E0EE013E0BA
:1014E000C0E0D0E026E0A22EB12CF80131971082A6
:1014F000F7011082F801108286E0C82ED12C812CD1
:101500008091A001880D87FD865F082E000C990B45
:10151000C817D90701F5209107032C9DC0012D9D07
:10152000900D1124B5010E94F72B462F80910403E2
:10153000829586958695837090910503592F550F56
:10154000550F970160910603852B92959695969578
:1015500093700E94C606890CF1E0CF1AD10881F67B
:10156000219683E0E80EF11C0D5F1F4FCA30D105B4
:1015700009F0BBCF0E944B078091A00190E00A9632
:10158000890D911D97FC9A95BE010E94F72B8093BF
:10159000A001DF91CF911F910F91FF90EF90DF900D
:1015A000CF90BF90AF909F908F9008959F92AF92F1
:1015B000BF92CF92DF92EF92FF920F931F93CF9340
:1015C000DF93CDB7DEB76E970FB6F894DEBF0FBED0
:1015D000CDBF90919F019F5F492F50E023E030E005
:1015E000281B3109421753071CF490939F0183C0B5
:1015F00010929F01CE0101966C015E0193E0A90E4D
:10160000B11C00E010E07601F50131971082F6017F
:101610001082F5011082912C8091000140919E0171
:10162000989E400D112447FD04C04A301CF049E04B
:1016300001C040E0042E000C550B04171507B9F447
:101640008091040382958695869583709091050319
:10165000592F550F550F96014091070360910603CE
:10166000852B92959695969593700E94C6069394B5
:10167000F4E09F12D1CF0F5F1F4F83E0C80ED11C43
:1016800093E0A90EB11C0A30110509F0BDCF2EE080
:1016900033E05AE0C52ED12CC801B6010E94F72BC9
:1016A000D9011197FC01EE0FFF1F8E0F9F1FF7014D
:1016B000E80FF91F81818C93119780818C9382812F
:1016C000F90180830F5F1F4F2D5F3F4F04311105DC
:1016D00019F70E944B0780919E0190910001891B90
:1016E00080939E018C3F14F48FEF03C08F301CF069
:1016F00081E0809300016E960FB6F894DEBF0FBEB6
:10170000CDBFDF91CF911F910F91FF90EF90DF90B0
:10171000CF90BF90AF909F90089572991DC0809117
:10172000040386958F71E82FF0E03297E631F105DA
:1017300098F4EC58FF4F0C940B2C81500C949909A1
:1017400085500C94CF0988500C94EC098E500C9461
:10175000440A84510C94D60A08950E946A286A9813
:10176000729A40E060E080E00C945807729913C0D0
:1017700080919D018F5F80939D01893C60F08091F5
:101780000203882321F08091FF02882321F0109228
:101790009D010C948D0B08958091A70108950895E3
:1017A00008950F931F93CF93DF938A3E910509F419
:1017B00074C0C8F5863B910509F478C0C0F4833B3A
:1017C000910509F47EC040F4823B910509F081C087
:1017D00000E010E0D8E082C0843B910509F475C0B8
:1017E000853B910509F075C000E010E476C08D3CA2
:1017F000910509F455C068F4873B910509F453C07D
:10180000883B910509F065C000E010E0D0E0C0E23F
:1018100066C0823E9105F1F1893E910509F059C0FB
:1018200000E014E05AC0833222E0920789F1A8F464
:10183000823921E0920709F440C030F48A3891409F
:1018400009F047C000E848C0843921E0920789F1D7
:1018500081329240F1F500E13FC0863222E09207EA
:1018600099F048F4843222E09207A9F1853292403F
:1018700081F502E031C0873222E0920739F08A32E6
:10188000924039F500E228C004E026C008E024C0F8
:1018900000E422C000E011E020C000E012E01DC022
:1018A00000E018E01AC000E010E117C000E010E20C
:1018B00014C000E010E0D1E011C000E010E0D2E080
:1018C0000DC000E010E0D0E109C000E010E0D0E27F
:1018D00005C000E001C001E010E0D0E0C0E088E019
:1018E0000E945B0280E00E945B0281EA0E945B0230
:1018F00083E00E945B02802F0E945B02812F0E9486
:101900005B028D2F0E945B028C2FDF91CF911F9184
:101910000F910C945B02CF93DF93EC018CE00E945B
:101920005B0280E00E945B0281EA0E945B0281E030
:101930000E945B0288810E945B0280E00E945B0241
:101940008A810E945B028B810E945B028C810E94D3
:101950005B028D810E945B028E810E945B028F81FF
:10196000DF91CF910C945B020E947C206093AD01CB
:101970007093AE018093AF019093B0010895809170
:10198000B10181111EC00E942A148250914059F069
:101990000E94E719809117018093AC011092170102
:1019A00082E091E01EC08091AB01811125C0809141
:1019B0003103843009F581E08093B1018093AB015C
:1019C0001BC00E942A148C50914071F081E08093DA
:1019D000AB010E94E7198091AC01809317018CE064
:1019E00091E00E94251408C080913103843021F0D9
:1019F0001092B1011092AB018091A801811116C023
:101A00008091AA01811112C06091AD017091AE0167
:101A10008091AF019091B0010E94B220613375476F
:101A20008105910518F081E08093AA010E94870644
:101A30008823C1F08091AA018823A1F06091AD01B3
:101A40007091AE018091AF019091B0010E94B220DF
:101A500061387E4E8643910528F081E08093A9018C
:101A60000C948D0608958331E9F0883181F085303A
:101A700009F50E94E7192FEF83ED90E32150804094
:101A80009040E1F700C000000E94042111C0809145
:101A9000B101882319F01092B101089581E080937B
:101AA000B10108959091A80181E089278093A80150
:101AB00081E0089580E0089584B7877F84BF0FB6E2
:101AC000F894A895809160008861809360001092DE
:101AD00060000FBE90E080E80FB6F894809361003C
:101AE000909361000FBE0E9442110E949F1180914D
:101AF000E20084608093E20078948FEF909131034C
:101B00008150943041F0EFE7FEE33197F1F700C0E8
:101B100000008111F3CF80913103843019F481E00A
:101B20008093B1010E947D060E94B40C0E9467144C
:101B30008091AA018823A1F00E9464210E9426219D
:101B4000882371F01092AA010E9497290E944C08E4
:101B50008091A901882321F01092A9010E948F068B
:101B60008091A9018111E4CF0E9473140E94BF0CDF
:101B7000DFCF8091D30108950895CF93DF9300D0F4
:101B80001F92CDB7DEB79C0180913103843019F5E7
:101B900093E099833B832A839093E9008FEF9091A0
:101BA000E800815095FD06C095ED9A95F1F700008B
:101BB0008111F5CF8091E80085FF0DC040E050E035
:101BC00063E070E0CE0101960E94AD0F8091E800C5
:101BD0008E778093E8000F900F900F90DF91CF9158
:101BE0000895209131032430F1F422E02093E9009C
:101BF0002FEF3091E800215035FD06C035ED3A95C4
:101C0000F1F700002111F5CF2091E80025FF0BC06E
:101C100040E050E065E070E00E94AD0F8091E80088
:101C20008E778093E8000895CF93DF93EC01909135
:101C30003103943009F046C0809116018823D9F011
:101C4000809117018823B9F09093E9008FEF90916C
:101C5000E800815095FD06C09AE29A95F1F700C020
:101C60008111F5CF8091E80085FF2CC040E050E065
:101C700060E270E017C081E08093E9008FEF9091FF
:101C8000E800815095FD06C095ED9A95F1F70000AA
:101C90008111F5CF8091E80085FF14C040E050E04D
:101CA00068E070E0CE010E94AD0F8091E8008E7771
:101CB0008093E80080E2FE01A3EBB1E001900D9279
:101CC0008A95E1F7DF91CF910895809130038111DA
:101CD00009C00E9442110E949F118091E20084601D
:101CE0008093E2000895109230030895089542E031
:101CF00061EC81E00E94BC1042E061EC82E00E9455
:101D0000BC1042E061EC83E00E94BC1042E261EC56
:101D100084E00C94BC1080913303833009F455C0E7
:101D200030F4813071F0823009F48EC008958A3029
:101D300009F47AC08B3009F460C0893009F09CC086
:101D400020C080913203813A09F096C08091E8006A
:101D5000877F8093E8008091360390913703892B29
:101D600021F460E283EB91E003C060E080E090E06A
:101D700070E00E94F80F8091E8008B778093E80074
:101D8000089580913203813209F076C08091360344
:101D900090913703009719F0039709F06DC0809177
:101DA000E800877F8093E8008091E80082FD05C00D
:101DB000809131038111F8CF5FC08091F100809351
:101DC000D3018091E8008B7753C080913203813A30
:101DD00009F052C08091360390913703892B09F0A6
:101DE0004BC08091E800877F8093E8008091E800F5
:101DF00080FFFCCF8091160136C080913203813282
:101E0000D9F58091360390913703892BA9F58091FC
:101E1000E800877F8093E8000E94F11080913403EE
:101E2000809316010C94E71980913203813221F5D9
:101E30008091E800877F8093E8000E94F1108091F4
:101E400035038093D401089580913203813AA1F43F
:101E50008091E800877F8093E8008091E80080FF10
:101E6000FCCF8091D4018093F1008091E8008E77BF
:101E70008093E8000C94F11008958091D301809331
:101E8000B2011092D30180E00E9412050E949D15BC
:101E90000C94E7190C943D0F0E949E218091B20191
:101EA0008093D30108950C944C0F292F33272330AE
:101EB0003105C9F064F42130310581F0223031055B
:101EC00009F043C08DE690E024E432E042C02132C4
:101ED0003105F1F02232310541F137C082E190E065
:101EE00021EB32E036C099278130910541F08230F4
:101EF000910541F0892B49F5E0E4F2E005C0E4E307
:101F0000F2E002C0E2E1F2E0849190E09F0121C0A2
:101F10006430D8F4E62FF0E0EE0FFF1FE45DFE4FD3
:101F20002081318189E090E014C0643070F470E069
:101F3000FB01EE0FFF1FEC5DFE4F20813181FB01A5
:101F4000E05EFE4F808190E004C080E090E020E001
:101F500030E0FA01318320830895CF92DF92EF922F
:101F6000FF920F931F93CF93DF93EC018B016A01D4
:101F70000E941011811133C0C114D10439F0F6014F
:101F800080819181081B190BC80FD91FE12CF12CFE
:101F90000115110519F18091E80085FD16C08091A9
:101FA000E8008E778093E800C114D10449F0F6016F
:101FB00080819181E80EF91EF182E08285E00FC0F8
:101FC0000E941011882321F30AC089918093F100A7
:101FD00001501109FFEFEF1AFF0ADACF80E0DF911D
:101FE000CF911F910F91FF90EF90DF90CF900895C8
:101FF00020913803309139032617370748F06115CF
:10200000710539F42091E8002E772093E80001C093
:10201000B90140E061157105A9F120913103222336
:1020200009F443C0253009F442C02091E80023FDA3
:1020300040C02091E80022FD32C02091E80020FF3E
:10204000E9CF4091F3002091F20030E0342BFC0105
:10205000CF016115710559F02830310540F48191A7
:102060008093F100615071092F5F3F4FF1CF41E044
:102070002830310509F040E02091E8002E772093C8
:10208000E800C8CF4111C9CF0AC08091310388232D
:1020900061F0853061F08091E80083FD0AC0809195
:1020A000E80082FFF2CF80E0089582E0089583E0A7
:1020B000089581E00895209138033091390326175F
:1020C000370748F06115710539F42091E8002E7743
:1020D0002093E80001C0B901FC0120E06115710501
:1020E00091F180913103882309F440C0853009F4CF
:1020F0003FC08091E80083FD3DC08091E80082FDF3
:102100002FC08091E80080FFE9CF2091F3008091FB
:10211000F20090E0922B6115710559F0883091051D
:1021200040F424912093F100319661507109019699
:10213000F2CF21E0089709F020E08091E8008E7747
:102140008093E800CBCF2111CCCF0AC0809131031E
:10215000882361F0853061F08091E80083FD0AC03A
:102160008091E80082FFF2CF80E0089582E0089538
:1021700083E0089581E00895982F973058F5909363
:10218000E900981739F07091EC002091ED00509122
:10219000F00003C0242F762F50E021FF19C03091AA
:1021A000EB003E7F3093EB003091ED003D7F3093AC
:1021B000ED003091EB0031603093EB007093EC0058
:1021C0002093ED005093F0002091EE0027FF07C010
:1021D0009F5FD3CF8F708093E90081E0089580E006
:1021E00008958091320387FF11C08091E80082FD3D
:1021F00005C0809131038111F8CF11C08091E800B2
:102200008B770BC080913103882349F08091E800DF
:1022100080FFF8CF8091E8008E778093E8000895E2
:102220002091E4003091E50095E64091EC00842F88
:10223000817040FF22C08091E80080FD1CC0809129
:102240003103882391F0853091F08091EB0085FD7A
:1022500010C04091E4005091E5004217530729F364
:102260009A01915011F784E0089582E0089583E087
:10227000089581E0089580E008954091E80042FFCC
:10228000DECF08950E94B0110E94B811E0EEF0E098
:10229000808181608083E8EDF0E080818F778083AA
:1022A00019BCA7EDB0E08C918E7F8C9380818F7EDE
:1022B00080831092300308950F931F93CF93DF9381
:1022C0000E94B0110E94B811C8EDD0E088818F77CC
:1022D000888388818068888388818F7D888319BC02
:1022E0001092310310922D0310922F0310922E039F
:1022F00000EE10E0F80180818B7F8083888181600F
:10230000888342E060E080E00E94BC10E1EEF0E0F3
:1023100080818E7F8083E2EEF0E080818160808327
:10232000808188608083F80180818E7F80838881AE
:1023300080618883DF91CF911F910F910895E8ED1F
:10234000F0E080818F7E8083E7EDF0E08081816026
:10235000808384E082BF81E0809330030C945C1121
:10236000E8EDF0E080818E7F80831092E200089596
:102370001092DA001092E10008951F920F920FB6AA
:102380000F9211242F933F934F935F936F937F93FB
:102390008F939F93AF93BF93EF93FF938091E1004F
:1023A00082FF0BC08091E20082FF07C08091E100B4
:1023B0008B7F8093E1000E9424148091DA0080FFDB
:1023C0001FC08091D80080FF1BC08091DA008E7FF3
:1023D0008093DA008091D90080FF0DC080E189BD33
:1023E00082E189BD09B400FEFDCF81E08093310315
:1023F0000E94650E05C019BC109231030E94730E35
:102400008091E10080FF19C08091E20080FF15C03B
:102410008091E2008E7F8093E2008091E2008061F3
:102420008093E2008091D80080628093D80019BC2C
:1024300085E0809331030E944A0F8091E10084FF80
:1024400030C08091E20084FF2CC080E189BD82E130
:1024500089BD09B400FEFDCF8091D8008F7D8093A7
:10246000D8008091E1008F7E8093E1008091E200AE
:102470008F7E8093E2008091E20081608093E20091
:1024800080912D03882311F084E007C08091E30040
:1024900087FD02C081E001C083E0809331030E9488
:1024A000530F8091E10083FF29C08091E20083FFF8
:1024B00025C08091E100877F8093E10082E08093D6
:1024C000310310922D038091E1008E7F8093E10013
:1024D0008091E2008E7F8093E2008091E200806133
:1024E0008093E20042E060E080E00E94BC108091B6
:1024F000F00088608093F0000E94760EFF91EF91CB
:10250000BF91AF919F918F917F916F915F914F910B
:102510003F912F910F900FBE0F901F9018951F9213
:102520000F920FB60F9211242F933F934F935F9307
:102530006F937F938F939F93AF93BF93CF93DF93CB
:10254000EF93FF93C091E900CF708091EC00D82FFA
:10255000D17080FDD0E81092E9008091F000877F73
:102560008093F00078940E94D3121092E900809139
:10257000F00088608093F000CD2BCF70C093E9000D
:10258000FF91EF91DF91CF91BF91AF919F918F918B
:102590007F916F915F914F913F912F910F900FBE5F
:1025A0000F901F9018951F93CF93DF93CDB7DEB791
:1025B000AA970FB6F894DEBF0FBECDBFE2E3F3E0FB
:1025C00088E08E0F9091F10091938E13FBCF0E94C3
:1025D0008B0E8091E80083FF1FC1809132039091A0
:1025E0003303492F50E04A30510508F015C1FA0174
:1025F000E657FF4F0C940B2C803881F0823809F09D
:102600000BC1809136038F708093E9008091EB00BD
:1026100085FB882780F91092E90006C080912E037F
:1026200090912F03911182609091E800977F909391
:10263000E8008093F1001092F100C8C0282F2D7F90
:1026400009F0EAC0882319F0823061F0E5C080917A
:102650003403813009F0E0C0933009F080E08093CA
:102660002F032BC080913403811127C08091360342
:102670008F7009F4D1C08093E9002091EB0020FF16
:102680001CC0933021F48091EB00806214C09091C3
:10269000EB0090619093EB0021E030E0A90102C0D3
:1026A000440F551F8A95E2F74093EA001092EA0022
:1026B0008091EB0088608093EB001092E90080919C
:1026C000E800877F86C08111A7C0109134031F776F
:1026D0008091E3008078812B8093E3008091E80073
:1026E000877F8093E8000E94F1108091E80080FFCE
:1026F000FCCF8091E30080688093E300111102C059
:1027000082E001C083E08093310386C0805882302C
:1027100008F082C080913403909135038C3D53E0E2
:10272000950779F583E08A838AE289834FB7F89425
:10273000DE01139620E03EE051E2E32FF0E05093FB
:102740005700E49120FF03C0E295EF703F5FEF7008
:102750008E2F90E0EA3010F0C79601C0C0968D939E
:102760009D932F5F243149F74FBF8091E800877F09
:102770008093E8006AE270E0CE0101960E94F80FB3
:1027800014C0AE014F5F5F4F609136030E94550F3A
:10279000BC01892B09F440C09091E800977F909389
:1027A000E80089819A810E945B108091E8008B7714
:1027B0008093E80031C0803879F58091E800877F08
:1027C0008093E80080912D038093F1008091E800D0
:1027D0008E778093E8000E94F1101EC081111CC00A
:1027E000909134039230C0F48091E800877F809309
:1027F000E80090932D030E94F11080912D03811128
:1028000006C08091E30087FD02C081E001C084E042
:10281000809331030E94770E8091E80083FF0AC005
:102820008091E800877F8093E8008091EB008062D0
:102830008093EB00AA960FB6F894DEBF0FBECDBF13
:10284000DF91CF911F91089508959093D8018093BF
:10285000D70108958091D7019091D8010895E09112
:10286000D701F091D801309721F00190F081E02D4F
:10287000099480E00895E091D701F091D801309754
:1028800021F00280F381E02D09940895E091D701B1
:10289000F091D801309721F00480F581E02D099462
:1028A00008952091D5013091D6018217930771F0D8
:1028B0009093D6018093D501E091D701F091D80192
:1028C000309721F00084F185E02D099408950E944D
:1028D00067200E9437030E9401220E948B040E94FD
:1028E00024280C9497298F929F92AF92BF92CF92F7
:1028F000DF92EF92FF920F931F93CF93DF9300D05D
:1029000000D01F92CDB7DEB70E94890300EF11E01F
:10291000F12C8F2D0E9481044C01F801A080B18020
:10292000A826B926A114B10439F4F3940E5F1F4F01
:10293000F5E0FF12EECF39C08091E00281FD0E94E8
:102940008A04E12CCC24C394D12CC6018A219B217A
:10295000892B21F1E982FA8221E0C601882199219F
:10296000892B09F420E02B830E9470208160782F4E
:102970009D838C8349815A816B818D810E94A01532
:1029800049815A816B817C818D810E943D06F801CD
:10299000808191818C259D2591838083E394CC0C4B
:1029A000DD1CFEE0EF12D1CFC0CF8FEF89838A8389
:1029B0001B820E9470208160782F9D838C834981C7
:1029C0005A816B818D810E94A0150E94B60B0E94D6
:1029D0000F258091EF01882379F08091ED0190918E
:1029E000EE010E9488208C34910530F01092EF01A6
:1029F00083EE91E00E9444091091E2010E942F149D
:102A0000181709F466C00E942F148093E20184FF16
:102A10005CC08091ED019091EE010E9488208C3481
:102A2000910520F01092E10110923A034091E101EA
:102A300050E0FA01E352FE4F8091E201837023E0FF
:102A400030E0241B350B220F331F01C0880F2A955D
:102A5000EAF780830E9470209093EE018093ED014D
:102A60008091E1018F5F8093E101843070F12091CA
:102A70003A03E22FF0E0ED51FE4F9091DE0180919C
:102A8000DD01892B9091DF01892B9091E001892B49
:102A900080838091E301883671F4223060F487E40A
:102AA00090E00E947B1F0E943E2087E490E00E94FD
:102AB000BD1F0E943E201092E10180913A038F5F7A
:102AC00080933A0381E08093EF018091E2010E94BC
:102AD0006420809131038430E1F48091DB01909196
:102AE000DC0101969093DC018093DB018091D90198
:102AF0009091DA010E948820883E934050F00E9415
:102B000070209093DA018093D9011092DC01109229
:102B1000DB010F900F900F900F900F90DF91CF91EE
:102B20001F910F91FF90EF90DF90CF90BF90AF90EB
:102B30009F908F9008950C9412050895089508951C
:102B4000CF93DF93CDB7DEB72B970FB6F894DEBFE8
:102B50000FBECDBF942F4F83252F588769877A8763
:102B60008B874A855B85452B21F02F3F09F59F3FD9
:102B7000F9F4DE01119686E0FD0111928A95E9F7DC
:102B800085E0FE01379601900D928A95E1F7498123
:102B90005A816B817C818D819E810E94B21C2B9613
:102BA0000FB6F894DEBF0FBECDBFDF91CF91089571
:102BB0004F81588569857A858B850E943D06D9CFDE
:102BC000CF93882309F452C0C82F8CEF8C0F813A21
:102BD00020F080E58C0F8E3248F48C2F0E948C27D9
:102BE000811144C08C2F0E947B1F0CC080E28C0F8F
:102BF000883058F4C77081E001C0880FCA95EAF7A1
:102C00000E940420CF910C943E2088E58C0F8731E0
:102C100068F5C83A89F0C93A91F0CA3A99F0CB3AC6
:102C2000A1F0CC3AA9F0CD3AB1F0CE3AB9F0CF3A12
:102C3000C1F080E090E017C082EE90E014C089EE11
:102C400090E011C08AEE90E00EC085EB90E00BC0E2
:102C500086EB90E008C083EB90E005C084EB90E049
:102C600002C087EB90E0CF910C945114CF9108955E
:102C7000882309F19CEF980F913A20F090E5980F86
:102C80009E3218F40E94BD1F0DC090E2980F98303C
:102C900058F4877091E001C0990F8A95EAF7892F5F
:102CA0000E940A200C943E20885A873120F480E04C
:102CB00090E00C9451140895882321F00E94042080
:102CC0000C943E200895882321F00E940A200C9441
:102CD0003E200895CF92DF92EF92FF920F931F93C1
:102CE000CF93DF93CDB7DEB727970FB6F894DEBF4B
:102CF0000FBECDBF25E0FC01DE01119601900D92C3
:102D00002A95E1F7FC014081518102816381748140
:102D1000258122952F706115710509F43BC35F3F32
:102D200019F44F3F09F436C36C01862F7D836C8301
:102D3000602F782F8D812F830E940E1F182F9E8366
:102D40000E940D1F0E94FD1D3E81E32FE295EF7052
:102D5000F0E0EC56FF4F2F810C940B2C832F807FDB
:102D6000932F9F70F92E882319F0F29490EFF92297
:102D7000002349F0FF2009F44CC28F2D0E94172038
:102D80000E943E2046C2812F0E943816FF2009F47F
:102D900001C38F2D0E941D2027960FB6F894DEBF29
:102DA0000FBECDBFDF91CF911F910F91FF90EF909C
:102DB000DF90CF900C943E20832F807F932F9F70C5
:102DC000F92E803219F0F29480EFF822112319F0D5
:102DD000113001F129C00023A9F08F2D222349F1E0
:102DE000213039F527960FB6F894DEBF0FBECDBF60
:102DF000DF91CF911F910F91FF90EF90DF90CF90D7
:102E00000C942720222319F0213009F4C3C20E9418
:102E10002A202CC00023E9F0233008F0BBC20E9416
:102E200001208F2129F022C00023F1F0211115C0CB
:102E30008F2D27960FB6F894DEBF0FBECDBFDF9162
:102E4000CF911F910F91FF90EF90DF90CF900C9456
:102E50005C16223008F09EC209C0F601858180FF11
:102E6000D8C18F708583E4CF2111E7C18F2D55C163
:102E7000832F86958695837009F08CC2002321F0FC
:102E8000812F932F937002C080E090E027960FB6B9
:102E9000F894DEBF0FBECDBFDF91CF911F910F9190
:102EA000FF90EF90DF90CF900C945114812F00236E
:102EB00081F00E9417240E940425163408F06AC28B
:102EC000E12FF0E0E550FE4F81E080838093FA012E
:102ED00061C20E947F240E940425163408F05AC261
:102EE000E12FF0E0E550FE4F10821092FA0152C23D
:102EF000832F837009F078C001114CC2812F829515
:102F000086958770880F880F912F9F70C92ED12CBE
:102F1000E12CF12C082E04C0CC0CDD1CEE1CFF1C97
:102F20000A94D2F714FF12C04FE050E060E070E066
:102F300004C0440F551F661F771F8A95D2F7CB0137
:102F4000BA01609570958095909503C060E070E03F
:102F5000CB01232F269526952370422F50E0423037
:102F60005105D1F04330510559F16C297D298E2945
:102F70009F294130510541F127960FB6F894DEBFE5
:102F80000FBECDBFDF91CF911F910F91FF90EF90BA
:102F9000DF90CF900C94221E6C297D298E299F29C9
:102FA00027960FB6F894DEBF0FBECDBFDF91CF914D
:102FB0001F910F91FF90EF90DF90CF900C943C1EEB
:102FC0000E94221EC701B60127960FB6F894DEBFF5
:102FD0000FBECDBFDF91CF911F910F91FF90EF906A
:102FE000DF90CF900C94081E002319F0832F81707E
:102FF00001C08695882309F4CDC1812F82958695DD
:103000008770880F880F912F9F70C92ED12CE12CCB
:10301000F12C082E04C0CC0CDD1CEE1CFF1C0A9405
:10302000D2F714FF12C04FE050E060E070E004C03F
:10303000440F551F661F771F8A95D2F7CB01BA013F
:10304000609570958095909503C060E070E0CB012D
:10305000232F269526952370422F50E042305105AC
:10306000D1F04330510559F16C297D298E299F29D2
:103070004130510541F127960FB6F894DEBF0FBEDF
:10308000CDBFDF91CF911F910F91FF90EF90DF9017
:10309000CF900C94E91E6C297D298E299F292796B3
:1030A0000FB6F894DEBF0FBECDBFDF91CF911F9159
:1030B0000F91FF90EF90DF90CF900C94FB1E0E9439
:1030C000E91EC701B60127960FB6F894DEBF0FBE02
:1030D000CDBFDF91CF911F910F91FF90EF90DF90C7
:1030E000CF900C94D71E103F41F118F4103E48F4D5
:1030F0008BC0123F09F450C0D8F1133F09F460C0EF
:1031000083C01F70832F8F71002321F00E94701ED7
:10311000812F8FCE0E94911E812F27960FB6F89493
:10312000DEBF0FBECDBFDF91CF911F910F91FF90FA
:10313000EF90DF90CF900C9463160023A9F022301B
:1031400008F028C1832F8F7127960FB6F894DEBF41
:103150000FBECDBFDF91CF911F910F91FF90EF90E8
:10316000DF90CF900C94B61E233008F013C1EACF45
:103170000023A1F0832F8F7127960FB6F894DEBF3E
:103180000FBECDBFDF91CF911F910F91FF90EF90B8
:10319000DF90CF900C94701E002361F3832F8F710A
:1031A00027960FB6F894DEBF0FBECDBFDF91CF914B
:1031B0001F910F91FF90EF90DF90CF900C94911E94
:1031C000002391F0832F8F7127960FB6F894DEBFFE
:1031D0000FBECDBFDF91CF911F910F91FF90EF9068
:1031E000DF90CF900C945B1E27960FB6F894DEBF4D
:1031F0000FBECDBFDF91CF911F910F91FF90EF9048
:10320000DF90CF900C94561E0023A1F0222309F4E6
:10321000B1CF812F27960FB6F894DEBF0FBECDBF7A
:10322000DF91CF911F910F91FF90EF90DF90CF90A2
:103230000C94E015222309F4B1CF812F27960FB605
:10324000F894DEBF0FBECDBFDF91CF911F910F91DC
:10325000FF90EF90DF90CF900C943816432F4F7073
:10326000612FC6010E94A42127960FB6F894DEBFF5
:103270000FBECDBFDF91CF911F910F91FF90EF90C7
:10328000DF90CF900C94561D011184C0112351F092
:10329000832F8F70843031F0932F907F212F2F70E8
:1032A000392F322B932F9F70892F90E08230910518
:1032B000E9F1ACF4009751F1019709F06BC0279642
:1032C0000FB6F894DEBF0FBECDBFDF91CF911F9137
:1032D0000F91FF90EF90DF90CF900C94C329833033
:1032E0009105A1F1049709F055C0812F27960FB6DB
:1032F000F894DEBF0FBECDBFDF91CF911F910F912C
:10330000FF90EF90DF90CF900C94282A27960FB66D
:10331000F894DEBF0FBECDBFDF91CF911F910F910B
:10332000FF90EF90DF90CF900C94AC2927960FB6CA
:10333000F894DEBF0FBECDBFDF91CF911F910F91EB
:10334000FF90EF90DF90CF900C94E62927960FB670
:10335000F894DEBF0FBECDBFDF91CF911F910F91CB
:10336000FF90EF90DF90CF900C94052A432F4F7081
:10337000612FC60127960FB6F894DEBF0FBECDBFF2
:10338000DF91CF911F910F91FF90EF90DF90CF9041
:103390000C94AF0227960FB6F894DEBF0FBECDBFD8
:1033A000DF91CF911F910F91FF90EF90DF90CF9021
:1033B00008950E9424200E94F31F0E943E200E9434
:1033C000F4250E94042580E090E00C9451140E94A2
:1033D00014200C94D919CF93DF9300D000D01F9202
:1033E000CDB7DEB70E940E1F292F22952F7030E037
:1033F0002C3031054CF42A303105C4F42250310907
:103400002230310540F023C02C303105D1F02F306F
:103410003105B9F01CC0853A28F48430B0F482300C
:1034200028F413C090E2980F983078F0883E30F47A
:10343000803E58F48450813A50F407C0803F39F4FC
:1034400004C093FB882780F903C081E001C080E0BD
:103450000F900F900F900F900F90DF91CF910895E4
:10346000CF93DF9300D000D01F92CDB7DEB70F907F
:103470000F900F900F900F90DF91CF910895CF9301
:10348000DF9300D000D000D0CDB7DEB726960FB6C0
:10349000F894DEBF0FBECDBFDF91CF9108951F938B
:1034A000CF93DF93C091370216E080913802C8179E
:1034B00099F0D0E01C9FF0011D9FF00D1124E75CF6
:1034C000FD4F4081518162817381848195810E9489
:1034D0003F1A2196C770E9CFDF91CF911F910895D0
:1034E0004091690250916A0260916B0270916C0286
:1034F00080916D0290916E020C943F1A80916E0241
:1035000082958F7009F054C080916B02882309F472
:103510004FC080913702A09138026091690270918A
:103520006A0240916C0250916D02B6E08A1709F46C
:103530003FC090E041155105C1F17F3F11F46F3F4D
:10354000A1F1B89FF001B99FF00D1124E75CFD4F88
:10355000218172132AC02081621327C02281211188
:1035600024C0238134812417350710F421503109F8
:10357000241B350B243B3105C0F420916E022F70C3
:10358000206120936E0226E0289FF001299FF00D14
:103590001124E25CFD4F80818F708061808389E619
:1035A00092E00E946A160C944F1A01968770BECF63
:1035B0000895BF92CF92DF92EF92FF920F931F93E5
:1035C000CF93DF93CDB7DEB761970FB6F894DEBF28
:1035D0000FBECDBF7C0185E0F701DE011D96019095
:1035E0000D928A95E1F7D7014C9111965C91119754
:1035F0001296DC90129713960D911C9114973091AE
:10360000690260916A0280916C0290916D0200974C
:1036100009F477C16F3F19F43F3F09F472C1B090CC
:103620006B02BB2009F4C5C020916E020817190770
:1036300028F0F801E81BF90BCF0104C080959095A4
:10364000800F911FCC24C394843B910580F0C12C42
:10365000207F09F0CCC0702F198B088B6D2D8989C4
:103660000E94301A89E692E00E946A16B6C0822F44
:10367000807F09F047C0651314C0341312C0D11005
:1036800010C02F70206120936E020E94701A89E68C
:1036900092E00E946A1680916E02D70115968C9373
:1036A0002FC00115110519F15F3F11F44F3FF9F0DB
:1036B000CD2CD1101CC0809137022091380236E009
:1036C000821709F45CC090E0389FF001399FF00D3B
:1036D0001124E75CFD4F6181561306C060814613DB
:1036E00003C06281611103C001968770E9CFCD2CC0
:1036F000DD2009F426C180916E02816080936E0204
:10370000C12C1FC1651308C0341306C0D11004C0FA
:1037100080916E02D701C9C04D875E87DF86702F0A
:10372000198B088B6D2D89890E94EB198823E9F18B
:10373000DD20D9F120916E02822F82958F7090E06A
:10374000029774F08091690290916A0298878F8342
:1037500019861B870A872C87CE0107960E946A1656
:1037600086E0F701A9E6B2E001900D928A95E1F7B3
:103770000E947E1A0E94701ACC24C394E2C0702F5B
:10378000198B088B60E089890E940E1F292F2295D2
:103790002F7030E0223031050CF0C7C09F7009F067
:1037A000C1C0805E883008F4CCC0C7010E946A1690
:1037B000E3CF0817190708F456C0F801E81BF90B06
:1037C000CF01843B910508F453C0C12C702F198B95
:1037D000088B6D2D89890E94301AE9E6F2E086E0B7
:1037E000DF011D928A95E9F70E94701AAAC065133D
:1037F00014C0341312C0D11010C080916E02F701B2
:103800008583C7010E946A1686E0E9E6F2E0DF01DF
:103810001D928A95E9F7CB2C94C04D875E87DF8691
:10382000702F198B088B6D2D89890E94EB198823C5
:1038300009F4BBCFDD2009F4B8CF20916E02822FAE
:1038400082958F7090E002970CF48ACF8091690284
:1038500090916A029A8389831B821D830C832E8335
:10386000CE0101967BCF80959095800F911FA9CFB7
:10387000CD2CDD2009F499CF65132EC034132CC054
:1038800020916E0220FD1FC0822F82958F70D9F08B
:10389000D70115962C9315978F3049F08F5F982F8D
:1038A0009295907F822F8F70892B15968C93C701EC
:1038B0000E946A1686E0F701A9E6B2E001900D9237
:1038C0008A95E1F791CF86E0F701A9E6B2E0019091
:1038D0000D928A95E1F735C04D875E87DF86702FA0
:1038E000198B088B6D2D89890E94EB19811138CFB6
:1038F00080916E02816080936E02C7010E946A16F9
:1039000020C0DD2009F451CF4D875E87DF86702F00
:10391000198B088B6D2D89890E94EB19882309F476
:1039200044CF1ECF81113DCF0CC0243031050CF0A7
:103930003CCF9F7009F435CFF7019581907F09F056
:1039400030CF8C2D61960FB6F894DEBF0FBECDBF81
:10395000DF91CF911F910F91FF90EF90DF90CF906B
:10396000BF9008951F93CF93DF93CDB7DEB72C9709
:103970000FB6F894DEBF0FBECDBF4F83588769875F
:103980007A878B879C87CE0107960E94D91A882355
:1039900069F08F8198852A853B85232BF1F19F3F24
:1039A00009F063C08F3F09F060C037C086E0FE01B8
:1039B0003796DE01119601900D928A95E1F76F819D
:1039C0007885EA85FB85309741F17F3F11F46F3FA1
:1039D00021F12091380230E0C901019687709927C2
:1039E0004091370250E08417950709F447C0698376
:1039F0007A83FD83EC8396E0929FD001939FB00D74
:103A00001124A75CBD4FFE01319601900D929A954D
:103A1000E1F7809338020E944F1A16E08091370236
:103A2000909138028917C1F1189FC0011124875C59
:103A30009D4F0E94D91A882379F1E09137021E9F89
:103A4000F0011124E75CFD4F408151816281738157
:103A5000848195810E943F1A8091370290E00196FF
:103A60008770992780933702D9CF4F815885698510
:103A70007A858B859C850E943F1ACFCF0E94E719DB
:103A80001092380210923702E9E6F2E086E0DF0198
:103A90001D928A95E9F7C1CF2C960FB6F894DEBF38
:103AA0000FBECDBFDF91CF911F910895DF92EF92AE
:103AB000FF920F931F93CF93DF93FC01892B09F49F
:103AC0008AC0E12CF12CDD24D394EF01219684915E
:103AD000853709F461C058F4843708F04EC084304B
:103AE00008F06AC08130D1F0823071F174C088373B
:103AF00009F45DC050F4863709F455C0873709F0E2
:103B00006AC08E2D0E94112054C09CE7980F9037F8
:103B100008F061C08F770E94381650C08F010E5F89
:103B20001F4FFE01849190E2980F983050F48770F7
:103B3000FD2D01C0FF0F8A95EAF78F2F0E941720F5
:103B400014C00E94E01513C08F010E5F1F4FFE01CD
:103B5000C49180E28C0F883060F4C7708D2D01C055
:103B6000880FCA95EAF70E941D200E943E20E801B6
:103B700025C08C2F0E943816FACF9F012E5F3F4F31
:103B8000FE01C491CC2369F08FE99FE00197F1F722
:103B900000C00000C150F6CF9F012E5F3F4FFE01D5
:103BA000F490E9010BC00E940120E82E07C00E949A
:103BB00014200E943E2002C00E94E0158F2D882311
:103BC00041F0EFE9FFE03197F1F700C000008150CC
:103BD000F6CFFE017ACFDF91CF911F910F91FF9029
:103BE000EF90DF9008956093B5027093B6028093D2
:103BF000B7029093B8020C943D0508956093B90202
:103C00007093BA028093BB029093BC020C947C0523
:103C10000F931F930091B9021091BA022091BB0239
:103C20003091BC02602B712B822B932B6093B902D5
:103C30007093BA028093BB029093BC021F910F91C4
:103C40000C947C050F931F930091B9021091BA0256
:103C50002091BB023091BC02602371238223932305
:103C60006093B9027093BA028093BB029093BC0236
:103C70001F910F910C947C050F931F930091B90233
:103C80001091BA022091BB023091BC0260277127CB
:103C9000822793276093B9027093BA028093BB0284
:103CA0009093BC021F910F910C947C0560E070E032
:103CB000CB010C94F31D0F931F9341E050E060E0A3
:103CC00070E08A019B0104C0000F111F221F331FE7
:103CD0008A95D2F7C901B8011F910F910C94F31D79
:103CE0000F931F9341E050E060E070E004C0440F88
:103CF000551F661F771F8A95D2F78091B502909164
:103D0000B602A091B702B091B8028A019B01082BBC
:103D1000192B2A2B3B2BC901B8011F910F910C9431
:103D2000F31D0F931F9341E050E060E070E004C08A
:103D3000440F551F661F771F8A95D2F740955095FF
:103D4000609570958091B5029091B602A091B702EE
:103D5000B091B8028A019B01082319232A233B232F
:103D6000C901B8011F910F910C94F31D0F931F937C
:103D700041E050E060E070E004C0440F551F661F52
:103D8000771F8A95D2F78091B5029091B602A091E3
:103D9000B702B091B8028A019B01082719272A2788
:103DA0003B27C901B8011F910F910C94F31D0F938C
:103DB0001F930091B5021091B6022091B702309185
:103DC000B802602B712B822B932B1F910F910C94B7
:103DD000F31D0F931F930091B5021091B60220912D
:103DE000B7023091B80260237123822393231F917D
:103DF0000F910C94F31D0F931F930091B502109136
:103E0000B6022091B7023091B8026027712782274D
:103E100093271F910F910C94F31D08958F929F92F9
:103E2000AF92BF92DF92EF92FF920F931F93CF93C7
:103E3000DF9300D000D01F92CDB7DEB78A01662392
:103E4000C9F18090B9029090BA02A090BB02B090E4
:103E5000BC028091B5029091B602A091B702B091D8
:103E6000B802882A992AAA2ABB2A8FE1E82EF12CC7
:103E7000D501C4010E2C04C0B695A79597958795DA
:103E80000A94D2F780FF07C0DE2CB8018E2D0E9465
:103E90007902019729F481E0E81AF10848F7D12C5A
:103EA0008EE0189FF0011124E00FF11DE159FD4F44
:103EB000D08209C08EE0189FF0011124E40FF11D9B
:103EC000E159FD4FD08009831A8369817A818D2D54
:103ED0000E9479020F900F900F900F900F90DF913A
:103EE000CF911F910F91FF90EF90DF90BF90AF9017
:103EF0009F908F90089590911601992321F09091B1
:103F00001701911109C02091180130911901F9018F
:103F100032969FEF40E01FC0982F96959695969504
:103F20009F3150F5E0911801F0911901E90FF11D51
:103F3000877021E030E0A90102C0440F551F8A9527
:103F4000E2F7CA019181892B818308959F3F39F05F
:103F50004F5F4E3141F051915813F8CF0DC05111C0
:103F6000F7CF942FF5CF9F3F39F0F901E90FF11DFD
:103F700097FDFA95828308950895909116019923EB
:103F800021F090911701911109C0209118013091F1
:103F90001901F9013296205E3F4F1FC0982F969568
:103FA000969596959F31F0F4E0911801F0911901E2
:103FB000E90FF11D877021E030E0A90102C0440F34
:103FC000551F8A95E2F7CA018095918189238183E3
:103FD00008953196E217F30729F090819813F9CFED
:103FE0001082F7CF089581E090E0E0911801F09100
:103FF0001901E80FF91F1082019680329105A9F787
:1040000008958091DF0208959091DF02892B8093BB
:10401000DF02089580959091DF0289238093DF026B
:1040200008958093DF0208951092DF020895909121
:10403000DE02892B8093DE02089580959091DE0246
:1040400089238093DE0208951092DE020895809302
:10405000BD0208951092BD020895809118019091BB
:104060001901FC0131969C01205E3F4F80E0919147
:1040700091118F5FE217F307D1F70895E0911801CE
:10408000F09119018091DF028083E0911801F09195
:10409000190190818091DE02892B80838091BD027D
:1040A000882361F0E0911801F09119019081892B2A
:1040B00080830E942D2081111092BD0280911801F1
:1040C000909119010C943B140C949B15089582E077
:1040D00084BD93E095BD9AEF97BD80936E000895DF
:1040E0002FB7F8948091E1029091E202A091E3024F
:1040F000B091E4022FBF08952FB7F8946091E102C8
:104100007091E2028091E3029091E4022FBF089542
:10411000CF92DF92EF92FF920F931F932FB7F894F5
:104120004091E1025091E2026091E3027091E40259
:104130002FBF6A017B01EE24FF248C0120E030E0D8
:10414000C016D106E206F30610F4415051099A0157
:10415000281B390BC9011F910F91FF90EF90DF9041
:10416000CF900895CF92DF92EF92FF920F931F931B
:104170002FB7F894C090E102D090E202E090E30201
:10418000F090E4022FBF97018601061B170B280B46
:10419000390BC616D706E806F90618F0C901B801AA
:1041A00006C0C901B80161507109810991091F91C7
:1041B0000F91FF90EF90DF90CF90089578941F9229
:1041C0000F920FB60F9211248F939F93AF93BF93CB
:1041D0008091E1029091E202A091E302B091E402A9
:1041E0000196A11DB11D8093E1029093E202A0937C
:1041F000E302B093E402BF91AF919F918F910F9032
:104200000FBE0F901F9018950E944211F8942FEF47
:1042100087EA91E6215080409040E1F700C000001D
:1042200087E090EBDC0180933D0390933E03A093E5
:104230003F03B09340039CE088E10FB6F894A89543
:10424000809360000FBE90936000FFCFCF930E94D9
:104250009E150E9489030E949F15C0E08C2F0E942A
:104260008104892B29F4CF5FC530C1F780E001C0FC
:1042700081E0CF9108951F920F920FB60F921124F3
:104280008F939F93AF93BF938091E502811113C0E9
:104290008091E1029091E202A091E302B091E402E8
:1042A0004196A11DB11D8093E1029093E202A0937B
:1042B000E302B093E402BF91AF919F918F910F9071
:1042C0000FBE0F901F90189580913103843009F430
:1042D00033C00FB6F894A8958091600088618093F0
:1042E0006000109260000FBE1092E50220E488E1A9
:1042F00090E00FB6F894A895809360000FBE2093CD
:1043000060000E94AD0B0E944E2883B7817F8460BD
:1043100083BF83B7816083BF7894889583B78E7F8E
:1043200083BF0FB6F894A895809160008861809350
:104330006000109260000FBE089508950E94E71972
:104340000E949D210C94972980E090E00895AF92FF
:10435000BF92CF92DF92EF92FF920F931F93CF9372
:104360007C01C0E0CC24C394D12C8C2F0E9481040A
:104370005C0100E010E0C601002E02C0880F991F0A
:104380000A94E2F78A219B21892BB1F0602F7C2FC0
:1043900080E00E9479029C018E159F0559F0832FC1
:1043A000807E932F907C11F0803A31F430E02E150E
:1043B0003F0511F481E009C00F5F1F4F0E3011055A
:1043C000D1F6CF5FC53089F680E0CF911F910F9174
:1043D000FF90EF90DF90CF90BF90AF900895CF9374
:1043E000DF93EC018CE290E00E94A721882329F062
:1043F000CE01DF91CF910C94A72180E0DF91CF9186
:104400000895CF930E946623811102C00E94472322
:10441000C5E6C15049F00E9489038FE39CE90197EA
:10442000F1F700C00000F5CF89E290E00E94EF2193
:1044300081112BC18AE290E00E94EF2181110E943C
:10444000472385E090E00E94EF2181110E94042122
:104450000E9466200E9471238093E00287E090E032
:104460000E94EF218823C1F18BE190E00E94EF21AF
:10447000882351F08091E00281FB222720F991E00E
:10448000922790FB81F90FC08EE090E00E94EF210F
:10449000882361F08091E00282FB222720F991E0DD
:1044A000922790FB82F98093E00216C080E190E0B1
:1044B0000E94EF219091E002882341F093FB222794
:1044C00020F981E0822780FB93F904C0892F809531
:1044D00080FB90F99093E0028091E0020E947523A6
:1044E0000E94832380933B0380EE90E00E94EF21A3
:1044F000882341F080913B03982F909590FB80F9A1
:1045000080933B0389E390E00E94EF21882359F0D8
:1045100080913B0381FB222720F991E0922790FBB9
:1045200081F980933B0382EE90E00E94EF21882383
:1045300059F080913B0382FB222720F991E09227DA
:1045400090FB82F980933B0386EE90E00E94EF217E
:10455000882359F080913B0383FB222720F991E0C7
:10456000922790FB83F980933B0383EE90E00E94B7
:10457000EF21882359F080913B0384FB222720F907
:1045800091E0922790FB84F980933B0385E390E0D0
:104590000E94EF21882359F080913B0385FB22275D
:1045A00020F991E0922790FB85F980933B0381E30A
:1045B00090E00E94EF21882359F080913B0386FB15
:1045C000222720F991E0922790FB86F980933B0304
:1045D00081E190E00E94EF21882359F080913B0314
:1045E00087FB222720F991E0922790FB87F980939F
:1045F0003B0380913B030E94872380913B0387FB11
:10460000882780F98093170187E290E00E94EF21CC
:10461000C82F8EE190E00E94EF218111C2608FE1EE
:1046200090E00E94EF218111C46080E290E00E943E
:10463000EF218111C86081E290E00E94EF21811199
:10464000C06182E290E00E94EF218111C06283E2AA
:1046500090E00E94EF218111C06484E290E00E940A
:10466000EF21882311F0C06802C0CC2329F08C2FE1
:104670000E947E236C2F03C00E947A23682F70E073
:1046800080E090E0CF910C94FE1DCF9108956DEEE7
:104690007EEF80E090E00E94512C60E082E090E0AC
:1046A0000E94432C60E083E090E00E94432C60E095
:1046B00084E090E00E94432C60E085E090E00E945E
:1046C000432C60E086E090E00C94432C80E090E086
:1046D0000E941F2C21E08D3E9E4F09F020E0822F8A
:1046E000089582E090E00C94112C682F82E090E015
:1046F0000C94432C83E090E00C94112C682F83E001
:1047000090E00C94432C84E090E00C94112C682FE2
:1047100084E090E00C94432C86E090E00C94112C03
:10472000682F86E090E00C94432C8091EA0280FF91
:104730000BC060911D0185E0689FB0011124759543
:104740006795759567952BC081FF09C060911D0124
:1047500085E0689FB00111247595679520C082FFA0
:1047600007C060911D0185E0689FB001112417C04A
:104770009091EB029923D1F060911C01961788F774
:1047800020911D0185E0289F90011124929FA00196
:10479000939F500D112470E0CA010E94F72B6038DE
:1047A000710540F46115710539F002C065E070E0F3
:1047B000862F08958FE7089581E008958091EA0299
:1047C00080FF08C060911B0170E075956795759535
:1047D000679521C081FF06C060911B0170E075954F
:1047E000679519C082FF04C060911B0170E010C082
:1047F0009091EB029923C1F060911A019617A0F7EE
:1048000080911B01899FC001112470E00E94F72B49
:104810006038710528F46115710521F0862F08951F
:104820008FE7089581E0089561E070E0F4CF803F64
:1048300021F40E949523819504C0813F29F40E94B0
:1048400095238093EE020895823F21F40E949523E0
:10485000819504C0833F29F40E9495238093ED0243
:104860000895893F19F40E94DE2305C08A3F31F480
:104870000E94DE2381958093EF0208958B3F21F4FF
:104880000E94DE23819504C08C3F29F40E94DE2320
:104890008093F0020895843F21F48091EC028160BE
:1048A00017C0853F21F48091EC02826011C0863FE1
:1048B00021F48091EC0284600BC0873F21F4809149
:1048C000EC02886005C0883F31F48091EC02806181
:1048D0008093EC0208958D3F21F48091EA0281607B
:1048E0000BC08E3F21F48091EA02826005C08F3FA9
:1048F00029F48091EA0284608093EA020895803F5F
:1049000039F48091EE0287FF6CC01092EE0269C00C
:10491000813F29F48091EE021816BCF362C0909199
:10492000ED02823F29F497FF5CC01092ED0259C05E
:10493000833F19F41916CCF354C0893F41F4809198
:10494000EF0218160CF04DC01092EF024AC08A3FD9
:1049500029F48091EF0287FF44C0F6CF8B3F39F4F2
:104960008091F00287FF3DC01092F0023AC08C3F68
:1049700029F48091F0021816BCF333C0843F21F46F
:104980008091EC028E7F17C0853F21F48091EC026C
:104990008D7F11C0863F21F48091EC028B7F0BC08C
:1049A000873F21F48091EC02877F05C0883F31F476
:1049B0008091EC028F7E8093EC0213C08D3F21F436
:1049C0008091EA028E7F0BC08E3F21F48091EA0233
:1049D0008D7F05C08F3F29F48091EA028B7F809301
:1049E000EA028091ED0281110EC08091EE028111E8
:1049F0000AC08091EF02811106C08091F0028111FE
:104A000002C01092EB0208958CEE92E00E944614D0
:104A10000E9470209093E7028093E60208950F931E
:104A20001F93CF93DF938091FA018823C9F180917E
:104A3000E8029091E9020E9488200B9788F10FEF1D
:104A400011E0C4E0F80181918F01882351F08C2F8F
:104A50000E947B1F0E943E208C2F0E94BD1F0E943F
:104A60003E20CF5FC63471F78091FB01882391F01F
:104A70008091EC0281608093EC028CEE92E00E94C7
:104A800046148091EC028E7F8093EC028CEE92E0D3
:104A90000E9446140E9470209093E9028093E802DD
:104AA0008091E6029091E7020E948820AC019091EB
:104AB000EB02992321F020911E0130E006C02091E5
:104AC0001F01FAE02F9F900111244217530708F4A9
:104AD00086C08091ED02C091EE02D091EF0210915C
:104AE000F002811107C0C11176C0D11174C011113B
:104AF00072C075C09F3F19F09F5F9093EB0218162C
:104B000024F40E9495238093ED028091ED0287FFAB
:104B100005C00E94952381958093ED021C1624F414
:104B20000E9495238093EE028091EE0287FF05C0DC
:104B30000E94952381958093EE026091ED02662399
:104B400031F1C091EE02CC2311F1062E000C770B4F
:104B5000880B990B0E94EA2A23E333E343E35FE3E4
:104B60000E94762B0E94B22A6093ED026C2FCC0F2C
:104B7000770B880B990B0E94EA2A23E333E343E384
:104B80005FE30E94762B0E94B22A6093EE021D160C
:104B900024F40E94DE238093EF028091EF0287FFCE
:104BA00005C00E94DE2381958093EF02111624F444
:104BB0000E94DE238093F0028091F00287FF05C0FF
:104BC0000E94DE2381958093F002DF91CF911F91A7
:104BD0000F910C9404259F3F09F08ECF96CFDF9163
:104BE000CF911F910F910895ECEEF2E085E0DF0187
:104BF0001D928A95E9F71092EB021092EA0208954D
:104C0000833081F128F4813059F08230D1F0089559
:104C1000853009F449C0B8F1863009F456C00895CA
:104C200080911F01262F30E0280F311D2F3F3105C5
:104C300024F4680F60931F0108958FEF80931F0184
:104C4000089580911E01262F30E0280F311D2F3F3F
:104C5000310524F4680F60931E0108958FEF80934F
:104C60001E01089580911D01262F30E0280F311D6F
:104C70002F3F310524F4680F60931D0108958FEFD5
:104C800080931D01089580911C01262F30E0280F8C
:104C9000311D2F3F310524F4680F60931C010895E6
:104CA0008FEF80931C01089580911B01262F30E027
:104CB000280F311D2F3F310524F4680F60931B012D
:104CC00008958FEF80931B01089580911A01262F7C
:104CD00030E0280F311D2F3F310524F4680F609319
:104CE0001A0108958FEF80931A010895833011F10E
:104CF00028F4813049F0823091F00895853081F1B7
:104D000020F18630C1F1089580911F01681720F4C9
:104D1000861B80931F01089510921F0108958091B2
:104D20001E01681720F4861B80931E0108951092BF
:104D30001E01089580911D01681720F4861B809341
:104D40001D01089510921D01089580911C0168179E
:104D500020F4861B80931C01089510921C01089575
:104D600080911B01681720F4861B80931B01089516
:104D700010921B01089580911A01681720F4861B78
:104D800080931A01089510921A0108950F931F93AA
:104D90008B3109F475C0A0F58E3009F484C0C0F4DD
:104DA000873009F462C068F4863009F0AFC08091A2
:104DB000E002817F8E7F8093E00281E08093F202A7
:104DC000A6C0883009F44AC08B3009F49DC09EC04B
:104DD000813109F472C068F4803109F097C0809184
:104DE000E00283FB222720F991E0922790FB83F9D0
:104DF00050C0863109F488C0893109F485C086C065
:104E0000853309F468C068F4873209F464C028F473
:104E10008E3108F47BC08D5164C0893209F45BC0C7
:104E200075C0833438F48A3308F05AC0883309F4E3
:104E30006BC06CC0833409F44EC0883409F066C07E
:104E40000E94E7190FEF13ED20E3015010402040BE
:104E5000E1F700C000000E94042156C00E947123A7
:104E60000E9483230E948C234FC09091E002892FDF
:104E7000817090FF12C0917F9E7F9093E00247C0A7
:104E80008091E00281FB222720F991E0922790FB9C
:104E900081F98093E0029923B9F18091E002816069
:104EA0008093E00231C08091E00282FB222720F94A
:104EB00091E0922790FB82F9ECCF0E94E7190E94C3
:104EC0002A148C50914001F59091170181E08927B7
:104ED0008093170119C061E070E080E090E010C09D
:104EE000895341E050E060E070E08A019B0104C01A
:104EF000000F111F221F331F8A95D2F7C901B80175
:104F00000E94FE1D0E94E71981E001C080E01F9110
:104F10000F91089580E00895CF93C82F8091F202F9
:104F2000813069F018F08230C9F184C0E091180135
:104F3000F09119018081823209F07EC007C0E091B2
:104F40001801F09119018081823261F48C2F0E9446
:104F5000330D811104C08C2F0E94C6261DC081E034
:104F600090E01AC08C2F0E948A27811114C0C4318E
:104F700079F048F4CB3079F0C03109F061C082E0BB
:104F80008093F20208C0C93219F0C83321F058C02A
:104F90001092F20255C081E0817054C0C93291F183
:104FA00020F5C43179F1B0F4C73009F047C08EE183
:104FB00080931F0182E380931E018AE080931D018C
:104FC00084E180931C0188E080931B0188E2809338
:104FD0001A0134C0CE51C63088F5EC2FF0E0EC5CFD
:104FE000FE4F80818093F10229C0CE34E9F020F495
:104FF000CB3421F56AE013C0C13579F0C235F1F444
:1050000061E00DC08091F102882319F01092F10245
:1050100015C081E08093F20215C061E006C0809166
:10502000F1020E9400260AC06AE08091F1020E940B
:10503000762604C01092F20280E004C081E002C033
:1050400080E0AACFCF910895E1E8F0E08081886008
:1050500080838081816080838FB7F89493E0909300
:1050600089009DE0909388008FBF0E94370681E001
:1050700080930303089580910303882371F0809146
:10508000880090918900892B41F080916F008260A7
:1050900080936F0082E0809303030895809103035F
:1050A000882389F08091880090918900892B59F09C
:1050B00080916F008D7F80936F0081E08093030368
:1050C00080E00C943B0608958091020381608093F8
:1050D000020308951092020380910303882319F0BC
:1050E00080E00C943B060895809300030895E82F18
:1050F000F0E0E050FD4F2081422F50E08FEF90E034
:10510000861B9109841795071CF48FEF80830895FF
:10511000620F60830895682F80E00C947728E82F51
:10512000F0E0E050FD4F8081861710F41082089562
:10513000861B80830895682F80E00C948F288091CF
:10514000FE0281608093FE0208951092FE0208958F
:105150004091FD0221E030E0662341F001C0220FC2
:105160008A95EAF7242B2093FD020895B90102C025
:10517000660F771F8A95E2F7CB0180958423809391
:10518000FD020895682F80E00C94A8288093FC020B
:1051900008958093FB0208958091FA0281608093C4
:1051A000FA0208951092FA021092F902089580937B
:1051B000F80208951F920F920FB60F9211242F93A9
:1051C0003F934F935F936F937F938F939F93AF938F
:1051D000BF93EF93FF938091F5028F5F8093F50269
:1051E0009091020390FF28C0811113C080910103A8
:1051F000882319F080E00E94390680910003809393
:10520000010387FD04C081E08093FF0202C0109279
:10521000FF029091F5028091010398130DC080E088
:105220000E943B068091010387FD03C01092FF029C
:1052300003C081E08093FF028091F5029091010309
:10524000811102C097FD04C0891360C087FD5EC054
:105250009091FE02992309F18091F4028F5F80936F
:10526000F4022091FC022817C0F41092F40290FF7F
:1052700014C08091FB02882321F081508093FB02AF
:105280000CC08091FD0261E080FF04C080E00E94BC
:105290008F2803C080E00E9477282091FA02222301
:1052A000A9F18091F3028F5F8093F3029091F8024D
:1052B000981760F51092F30220FF28C08091F70242
:1052C000E82FF0E0EC55FC4FE491E093000390915F
:1052D000F60290FF12C081110EC09E7F9093F602DD
:1052E0008091F90280FF12C02E7F2093FA028E7FF8
:1052F0008093F9020BC0815007C08F3721F4916071
:105300009093F60203C08F5F8093F702FF91EF91B5
:10531000BF91AF919F918F917F916F915F914F91CD
:105320003F912F910F900FBE0F901F9018950E94E4
:105330006623811102C00E9447230E948C23809320
:105340003C03811102C081E005C080FF02C0869548
:1053500001C080E00C94E70580913C03982F96955E
:10536000292F30E0283031054CF49F5F990F817070
:10537000892B816080933C030E94902380913C03A1
:1053800086950C94E70580913C0380FF1EC0982F02
:105390009695292F30E02230310594F09158990FDD
:1053A0008170892B80933C038E7F91E009F490E01B
:1053B00080913C0390FB80F980933C030E949023F2
:1053C00080913C0386950C94E705089580913C03F9
:1053D000982F9095917090FB80F980933C039923CE
:1053E00039F0982F9E7F21F48170826080933C0376
:1053F00080913C030E94902380913C0380FF02C077
:10540000869501C080E00C94E70590913C03892FBC
:1054100086958F5F8F779170893028F4880F892B5C
:1054200080933C0302C090933C0380913C038E7FA9
:1054300091E009F490E080913C0390FB80F9809327
:105440003C030E94902380913C0386950C94E705D1
:10545000880F90913C039170892B80933C038E7F41
:1054600091E009F490E080913C0390FB80F98093F7
:105470003C030E94902380913C0386950C94E705A1
:105480000E94542A0C943C2B0E94352B58F00E9409
:105490002E2B40F029F45F3F29F00C94252B51115D
:1054A0000C94702B0C942B2B0E944D2B68F399239A
:1054B000B1F3552391F3951B550BBB27AA27621710
:1054C0007307840738F09F5F5F4F220F331F441F1D
:1054D000AA1FA9F335D00E2E3AF0E0E832D0915051
:1054E0005040E695001CCAF72BD0FE2F29D0660F3E
:1054F000771F881FBB1F261737074807AB07B0E881
:1055000009F0BB0B802DBF01FF2793585F4F3AF086
:105510009E3F510578F00C94252B0C94702B5F3F27
:10552000E4F3983ED4F3869577956795B795F7950C
:105530009F5FC9F7880F911D9695879597F90895F4
:10554000E1E0660F771F881FBB1F62177307840790
:10555000BA0720F0621B730B840BBA0BEE1F88F79F
:10556000E09508950E94B92A6894B1110C94702BAB
:1055700008950E94552B88F09F5798F0B92F9927CE
:10558000B751B0F0E1F0660F771F881F991F1AF02E
:10559000BA95C9F714C0B13091F00E946F2BB1E0F9
:1055A00008950C946F2B672F782F8827B85F39F0F8
:1055B000B93FCCF3869577956795B395D9F73EF4C7
:1055C00090958095709561957F4F8F4F9F4F08956F
:1055D000E89409C097FB3EF490958095709561958D
:1055E0007F4F8F4F9F4F9923A9F0F92F96E9BB2743
:1055F0009395F695879577956795B795F111F8CFBF
:10560000FAF4BB0F11F460FF1BC06F5F7F4F8F4F29
:105610009F4F16C0882311F096E911C0772321F01F
:105620009EE8872F762F05C0662371F096E8862FB7
:1056300070E060E02AF09A95660F771F881FDAF70E
:10564000880F9695879597F9089597F99F6780E851
:1056500070E060E008959FEF80EC089500240A94C4
:105660001616170618060906089500240A9412163D
:105670001306140605060895092E0394000C11F470
:10568000882352F0BB0F40F4BF2B11F460FF04C01D
:105690006F5F7F4F8F4F9F4F089557FD9058440F76
:1056A000551F59F05F3F71F04795880F97FB991F81
:1056B00061F09F3F79F0879508951216130614063E
:1056C000551FF2CF4695F1DF08C0161617061806CB
:1056D000991FF1CF86957105610508940895E894A6
:1056E000BB2766277727CB0197F908950E94892B5E
:1056F0000C943C2B0E942E2B38F00E94352B20F06E
:10570000952311F00C94252B0C942B2B11240C9425
:10571000702B0E944D2B70F3959FC1F3950F50E0B5
:10572000551F629FF001729FBB27F00DB11D639F53
:10573000AA27F00DB11DAA1F649F6627B00DA11DF9
:10574000661F829F2227B00DA11D621F739FB00D9F
:10575000A11D621F839FA00D611D221F749F33270F
:10576000A00D611D231F849F600D211D822F762FA8
:105770006A2F11249F5750409AF0F1F088234AF085
:10578000EE0FFF1FBB1F661F771F881F91505040F1
:10579000A9F79E3F510580F00C94252B0C94702B9B
:1057A0005F3FE4F3983ED4F3869577956795B79578
:1057B000F795E7959F5FC1F7FE2B880F911D969592
:1057C000879597F90895AA1BBB1B51E107C0AA1F33
:1057D000BB1FA617B70710F0A61BB70B881F991F92
:1057E0005A95A9F780959095BC01CD01089597FB36
:1057F000072E16F4009407D077FD09D00E94E32B02
:1058000007FC05D03EF4909581959F4F08957095C3
:1058100061957F4F0895EE0FFF1F0590F491E02DE5
:105820000994F999FECF92BD81BDF89A992780B568
:105830000895A6E1B0E044E050E00C94582CA8E1B3
:10584000B0E042E050E00C94582C262FF999FECF9E
:1058500092BD81BDF89A019700B4021639F01FBAC3
:1058600020BD0FB6F894FA9AF99A0FBE08950396E0
:10587000272F0E94262C0E94252C252F0E94262CA3
:10588000242F0C94262C262FF999FECF1FBA92BDF7
:1058900081BD20BD0FB6F894FA9AF99A0FBE019611
:1058A00008950E94432C272F0C94442CDC01CB013B
:1058B000FC01F999FECF06C0F2BDE1BDF89A319620
:1058C00000B40D9241505040B8F70895F894FFCFBE
:1058D000FF01CC0B8B0CCF0BD00BD10BB90D140EE1
:1058E000F10DBC0DBD0D0101BE022808140A321EC7
:1058F000404D1B3964031703FC02C30256026F02BA
:0E5900008802A102010203040506070809003F
:10680000BF55EA44E944E2440400050006000700DD
:10681000080009000A000B000C000D000E000F001C
:1068200010001100120013001400150016001700CC
:10683000180019001A001B001C001D001E001F007C
:10684000200021002200230024002500260027002C
:10685000280000F035002B002C002D002E002F000A
:10686000300031003100330034002A003600370098
:106870003800E0003A003B003C003D003E003F0095
:1068800040004100420043004400450046004700EC
:10689000480049004A004B00E5004D004E004F0003
:1068A00050005100F1A1530054005500560057000C
:1068B000580059005A005B005C005D005E005F00FC
:1068C00060006100620063006400510085006700A1
:1068D000F450F550F650F750F850F950FA506F0058
:1068E000700071007200730089004E008A008B00F6
:1068F0003900E100E200E3004F005200E600F1A1A0
:106900002F00010001000100F250B540CD40F350CE
:1069100000D00100010001000100010001000100A0
:1069200004F003F00100460002D001D0F15003D082
:106930006F40B640F050B740704083413A003B0092
:106940003C003D003E003F0040004100420043004B
:106950000100350048000100010044004500F450EA
:10696000F550924192414A00F8504C0001004D0010
:10697000F7500100010001000100010001000100C9
:1069800001000100010001000100010001000100FF
:106990000100010001000100010001000100E944C3
:1069A000E244EA440100010001000100010001008D
:1069B00001000100010001000100010001000100CF
:1069C00001000100010001000100EA400100010096
