:100000000C943E020C9485020C9485020C9485029B
:100010000C9485020C9485020C9485020C94850244
:100020000C9485020C9485020C94FF110C94D1124F
:100030000C943C210C9485020C9485020C9485024E
:100040000C9485020C949B280C9485020C948502D8
:100050000C9485020C94B0200C9485020C948502BB
:100060000C9485020C9485020C9485020C948502F4
:100070000C9485020C9485020C9485020C948502E4
:100080000C9485020C9485020C9485020C948502D4
:100090000C9485020C9485020C9485020C948502C4
:1000A0000C9485020C9485020C94850273037803EA
:1000B0009E039A03AC03A803BA03B6036D066D064C
:1000C0007B068406840684068F0697063E1360131B
:1000D0004E1460134E14A513C8134E141D1430147F
:1000E0007F167F16AD16AD16091727179B199B199A
:1000F00049179B1944184418FF1815199B1987199B
:10010000291E1F20212223242526272D2E2A2B14A9
:100110001A0815171C180C12132F30313904160742
:10012000090A0B0D0E0F3334322879641D1B061992
:10013000051110363738757D787B7A80802C804C9D
:1001400050357E7F657C001060FF6E645A503C32F3
:10015000281E140A968C82786E645A50463C3228C7
:100160001E14783C1E1E140A050000000001010147
:100170000202030405050607090A0B0C0E0F1112F3
:10018000141517191B1D1F212325282A2C2F313444
:1001900036393B3E414346494C4F5255585A5D61B2
:1001A00064676A6D707376797C7F8386898C8F92A1
:1001B00095989B9EA2A5A7AAADB0B3B6B9BCBEC187
:1001C000C4C6C9CBCED0D3D5D7DADCDEE0E2E4E6D4
:1001D000E8EAEBEDEEF0F1F3F4F5F6F8F9FAFAFBF4
:1001E000FCFDFDFEFEFEFFFFFFFFFFFFFFFEFEFE2C
:1001F000FDFDFCFBFAFAF9F8F6F5F4F3F1F0EEED9B
:10020000EBEAE8E6E4E2E0DEDCDAD7D5D3D0CECB29
:10021000C9C6C4C1BEBCB9B6B3B0ADAAA7A5A29E9B
:100220009B9895928F8C898683807C797673706D8C
:100230006A6764615D5A5855524F4C494643413E86
:100240003B393634312F2C2A282523211F1D1B1919
:1002500017151412110F0E0C0B0A090706050504D9
:10026000030202010101000000200347004800369C
:100270000030002000420054005F0052004700425E
:100280000020004D006F00640000000A0359004187
:10029000004E00470000000403090409026D000439
:1002A0000100A0320904000001030101000921112D
:1002B0000100012240000705810308000109040133
:1002C000000103010200092111010001224D000774
:1002D00005820308000A0904020001030000000966
:1002E0002111010001221B000705830308000A09F0
:1002F000040300010300000009211101000122395B
:10030000000705840320000112011001000000080D
:10031000EDFE606001000102000105010906A10176
:10032000050719E029E715002501950875018102E7
:1003300005081901290595057501910295017503B7
:1003400091010507190029F71500250195F8750198
:100350008102C0050C0901A1018503160100269C3C
:10036000021A01002A9C02751095018100C0050146
:100370000902A1010901A1000509190129051500BA
:10038000250195057501810295017503810105011E
:10039000093009311581257F9502750881060938D4
:1003A0001581257F950175088106050C0A3802150F
:1003B00081257F950175088106C0C005010906A148
:1003C00001050719E029E715002501950875018148
:1003D0000295017508810105081901290595057522
:1003E0000191029501750391010507190029FF1577
:1003F0000026FF00950675088100C000000000007F
:1004000000000000000101010202020303040405D0
:10041000050606070808090A0B0B0C0D0E0F101134
:100420001213151617191A1B1D1E20222325272902
:100430002B2D2F313335383A3D3F4244474A4D50FA
:100440005356595C5F6266696C7074777B7E8286F6
:100450008A8E9195999DA1A5A9ADB0B4B8BCC0C331
:10046000C7CBCED2D5D8DBDFE2E4E7EAECEFF1F39D
:10047000F5F7F8FAFBFCFDFEFFFFFF0011241FBE9D
:10048000CFEFDAE0DEBFCDBF04B603FE27C0809118
:10049000E6029091E702A091E802B091E90287306C
:1004A000904BA740B04BD1F41092E6021092E702B5
:1004B0001092E8021092E90214BE84B7877F84BFCD
:1004C0000FB6F894A89580916000886180936000D1
:1004D000109260000FBEE0E0F8E3099511E0A0E0A3
:1004E000B1E0E4EBF7E502C005900D92A034B1074E
:1004F000D9F722E0A0E4B1E001C01D92A63EB20708
:10050000E1F70E949A0D0C94D82B0C9400000FB6C2
:1005100080959AE0F8947AE57A95F1F708F08C9A4C
:1005200008F48C9886959A95B1F70FBE08952EE041
:10053000929FF0011124E80FF11DE050FF4F9491BC
:10054000892F8F7092959F700895CF93C82FCB01FC
:100550000E949702282F30E080E1989FA00111248B
:10056000422B532B4038510519F480E090E021C014
:100570009770E92FF0E088E0C89FE00DF11D11248D
:1005800084E0EE0FFF1F8A95E1F7E20FF31FEE0FF5
:10059000FF1FE050F84925913491C9018B7F833EBC
:1005A000910531F480914101882311F020E030E081
:1005B000C901CF9108950F931F93CF938C01C62F3C
:1005C000FC0192816230A9F128F4662369F0613060
:1005D000C9F078C06C3009F45FC06D3009F46AC0AE
:1005E0006B3009F06FC046C0992371F00E94D21F92
:1005F000827231F00E94D21F80FD02C085E310C0DC
:1006000089E20EC0911105C0809140010E94091637
:100610000DC00E94D21F82FF02C08DE301C081E2A3
:1006200080934001809140010E94B1150E940F20EB
:1006300049C0992309F446C00E94D21F80FF0DC013
:100640000E94B819FFEF20E782E0F150204080407F
:10065000E1F700C000000E94D6208FEF0E94D51F56
:100660000E940F208FEF0E94DB1F0E940F200E942C
:10067000B81928C0992331F18091410191E0982760
:1006800090934101992319F081E090E002C080E04D
:1006900090E00E94330616C09923A1F080917B015F
:1006A000882321F010927B012B980CC081E080936D
:1006B0007B0108C0992331F08091720191E0982765
:1006C00090937201F8018281882309F45DC08C2F18
:1006D00090E0FC013397E830F10508F055C0EA5A84
:1006E000FF4F0C947D2BCF911F910F910C94A90972
:1006F0000E94D21F81FF19C09091B702892F869561
:10070000815C8F739178882319F0880F892B02C040
:10071000892F8E628093B7028091B70286958F737E
:10072000CF911F910F910C941C09CF911F910F91A4
:100730000C945C090E94D21F81FF05C0CF911F91CC
:100740000F910C949308CF911F910F910C947B08FB
:100750000E94D21F81FF05C0CF911F910F910C9471
:10076000CD08CF911F910F910C94B2080E94D21F17
:1007700081FF05C0CF911F910F910C940209CF9179
:100780001F910F910C94E708CF911F910F9108953D
:100790008AB1807D8AB98BB1807D8BB9089580E85C
:1007A00085BF85BF0E9466090E94C80380B38C7F05
:1007B00080BB81B3836081BB6E98769A8AB18F7259
:1007C0008AB98BB1806D8BB987B18F7387B988B1C6
:1007D000806C88B984B1847084B985B18B6F85B918
:1007E000ECE4F1E0A2E4B1E0119211921D921D92AD
:1007F00081E0E635F807C1F70895CF92DF92EF92D6
:10080000FF920F931F93CF93DF931F92CDB7DEB765
:1008100002E411E0680160E0FF24F394B5E0EB2E00
:10082000623071F018F4613041F004C0633059F067
:10083000643061F0509A58980BC0519A599808C08A
:10084000529A5A9805C0539A5B9802C0559A5D987F
:1008500080EA8A95F1F78FB181708F2590E07999C0
:1008600003C022E030E002C020E030E0822B932B76
:10087000669903C024E030E002C020E030E0AC0123
:10088000422B532B26B1022E000C330B20953095B2
:10089000C9018827990F881F9927A3E0880F991FFE
:1008A000AA95E1F7842B952B369903C0A0E1B0E01F
:1008B00002C0A0E0B0E08A2B9B2B1E9903C0A0E2EF
:1008C000B0E002C0A0E0B0E08A2B9B2B4C9903C0A3
:1008D000E0E4F0E002C0E0E0F0E08E2B9F2B1999FD
:1008E00003C020E830E002C020E030E0AC01422B41
:1008F000532B189B0EC023B1022E000C330B2095F6
:100900003095C9018827990F881F9927982F882724
:1009100002C080E091E0842B952B1D9903C040E03C
:1009200052E002C040E050E0842B952B1C9903C09C
:1009300040E054E002C040E050E0842B952B49B1E8
:10094000042E000C550B409550959A012227330F29
:10095000221F3327322F2227330F330F330F282B39
:10096000392B4E9903C080E090E102C080E090E016
:10097000282B392B1B9903C040E050E202C040E015
:1009800050E0242B352BD6018D919C911197821725
:10099000930721F02D933C93E092000169830E941C
:1009A000C80369816F5FB2E0CB0ED11C653009F0DE
:1009B00037CF809100018823C1F0815080930001DE
:1009C000882339F0EFE9FFE03197F1F700C000002C
:1009D0000CC0ECE4F1E0D8018D919D918D018193E3
:1009E0009193B1E00C341B07B1F781E00F90DF91D8
:1009F000CF911F910F91FF90EF90DF90CF900895CE
:100A0000E82FF0E0EE0FFF1FE45BFE4F8081918145
:100A100008950895229A2A9AA6E5B1E080E0E82F89
:100A2000E695F0E0E659FF4FFE2FEE27282F2170C4
:100A300030E0E20FF31F459154914D938F5F883062
:100A400071F708959091B70290FD2DC08230A9F002
:100A50008330E9F0813039F580E090E02FEFFC0140
:100A6000E154FD4F2183039688319105C1F768E079
:100A700070E08FEB92E00C942A07EFEBF2E08FEF3F
:100A80008083339692E0E73DF907D1F7F0CF80E01D
:100A900090E02FEFFC01E154FD4F22830396883153
:100AA0009105C1F7E4CF811101C02A980895909172
:100AB000B70290FD2AC08230A1F08330D9F0813096
:100AC00021F580E090E0FC01E154FD4F1182039696
:100AD00088319105C1F768E070E08FEB92E00C94EB
:100AE0002A07EFEBF2E01082339682E0E73DF80749
:100AF000D1F7F1CF80E090E0FC01E154FD4F12828C
:100B0000039688319105C1F7E6CF811101C02A9A79
:100B10000895EF92FF920F931F93CF9396E5E92EDE
:100B200091E0F92EC0E0082F10E0F70191917F01CC
:100B300080EF890F833078F4980102C035952795AE
:100B40008A95E2F720FF04C08C2F0E94220503C083
:100B50008C2F0E945705CF5FC83039F7CF911F9176
:100B60000F91FF90EF9008958F929F92AF92BF9256
:100B7000EF92FF920F931F93CF934B015C0106E519
:100B800011E0C0E0EE24E394F12CF80181918F0193
:100B90009FEF980F9730D0F4970102C0220F331FB8
:100BA0008A95E2F7C901092E000CAA0BBB0B88211C
:100BB0009921AA21BB21892B8A2B8B2B21F08C2FE9
:100BC0000E94220503C08C2F0E945705CF5FC830BA
:100BD000E1F6CF911F910F91FF90EF90BF90AF90F2
:100BE0009F908F9008958F929F92AF92BF92EF92B5
:100BF000FF920F931F93CF934B015C0106E511E029
:100C0000C0E0EE24E394F12CF80181918F0197EF7D
:100C1000980F9730D8F48850970102C0220F331FE5
:100C20008A95E2F7C901092E000CAA0BBB0B88219B
:100C30009921AA21BB21892B8A2B8B2B21F08C2F68
:100C40000E94220503C08C2F0E945705CF5FC83039
:100C5000D9F6CF911F910F91FF90EF90BF90AF9079
:100C60009F908F900895EF92FF920F931F93CF93D1
:100C700096E5E92E91E0F92EC0E0082F10E0F7018B
:100C800091917F018BEE890F883078F4980102C032
:100C9000359527958A95E2F720FF04C08C2F0E9496
:100CA000220503C08C2F0E945705CF5FC83039F74B
:100CB000CF911F910F91FF90EF900895CF93C82F80
:100CC0000E94FC278C2F90E0FC013197E830F10561
:100CD000D8F5E25AFF4F0C947D2B0E9425280E94E4
:100CE00066280E949328EC2FF0E0EA5BFE4F849187
:100CF000CF910C9435280E9466280E9493280E9468
:100D00002B288D98CF9108950E9425280E9466284F
:100D10000E948D2886E08C1BCF910C9498280E940D
:100D200025280E9460280E94932880E007C00E9426
:100D300025280E9460280E94932881E00E94832831
:100D400081E0CF910C9487280E9466280E94932806
:100D500080E00E943528CF910C942B28859A089525
:100D60008D9808958D9A08951F93CF93DF9300D0A7
:100D700000D01F92CDB7DEB7162F0E944E20609391
:100D80007701709378018093790190937A01809133
:100D9000E50280FF20C08E7F8E3041F4112331F0B8
:100DA00080E20E948A2880E10E945C288091E5020E
:100DB0008E7F803181F4112371F080E20E948A28B5
:100DC00080E10F900F900F900F900F90DF91CF91D7
:100DD0001F910C944C280F900F900F900F900F9034
:100DE000DF91CF911F9108950C94B00B0895089551
:100DF00021B3342F3095232331B3432B3FB7F894DD
:100E0000FC01680F791FE617F70789F0819198E0D8
:100E100041BB000000C087FF21BB880F000000C05D
:100E200000C000C021BB00C09A9591F7ECCF3FBF36
:100E3000089520B3242B20BB9B01220F331F620F88
:100E4000731F0E94F80687EC90E00197F1F700C04D
:100E50000000089540E40C941907EF92FF920F935D
:100E60001F93CF93DF9300D000D01F92CDB7DEB792
:100E7000062F142F7901443008F414E0BC0180E0FF
:100E800090E00E94312A22E133E848E050E40E94D9
:100E90009C2A0E94022AE12FF0E0DB01BB27202FD1
:100EA00030E0A29FA001A39F500DB29F500D1124CE
:100EB000452F5527E49FD001E59FB00DF49FB00D5D
:100EC000112440E051E0421B530B4E9F90014F9F75
:100ED000300D5E9F300D11243C833983232F2B0F5F
:100EE0002D832A831B1B1B83872F992763E070E0C8
:100EF0000E94552BFE01E80FF91F3281FE01E80F19
:100F0000F91F2181FE01E80FF91F8381F701818319
:100F1000308322830F900F900F900F900F90DF91EE
:100F2000CF911F910F91FF90EF9008958AE090E08C
:100F30000C948B2BAB01BC018AE090E00C94A92BA4
:100F4000E7EBF2E08CE98083A8EBB2E08C9180784B
:100F5000866180688C938FEF828383836091B70270
:100F60007091B8028091B9029091BA020C949A07DC
:100F70008091B70280FF06C068E070E08FEB92E0DE
:100F80000C942A0780E090E0FC01E154FD4F1182AF
:100F900010821282039688319105B1F7EDCF20E0DF
:100FA00030E0F901E154FD4F8183608342832D5F7E
:100FB0003F4F28313105A9F70C94B807EF92FF9203
:100FC0000F931F93CF93DF9300D01F92CDB7DEB75F
:100FD0000091B7021091B8022091B9023091BA0283
:100FE0000093BB021093BC022093BD023093BE025B
:100FF0002091B70220FF21C0042FF62EE92E182FD2
:101000009E012F5F3F4F0E942D078091BB0210FB76
:1010100087F98093BB0216958091BC028078182BCB
:10102000E0FA17F91093BC02F092BD020093BE02E1
:101030004B8169818A810E94CF070F900F900F909A
:10104000DF91CF911F910F91FF90EF9008950F9333
:101050001F93CF93DF93EC01062F142F9091B702CB
:1010600090FF44C0892F8E77823021F4CE010E94F8
:10107000DE071BC0892F86958F732EE3280F2F73F1
:10108000243018F41091BA0210C0865C8F73893036
:1010900060F4C92FCC1FCC27CC1FD091B8028D2F64
:1010A000880FC82BD7FBDD27D0F98091B702C0FB92
:1010B00087F98093B702C6958091B8028078C82BD3
:1010C000D0FBC7F9C093B8020093B9021093BA02DB
:1010D0006091B7027091B8028091B9029091BA0202
:1010E000DF91CF911F910F910C949A07DF91CF91CF
:1010F0001F910F910895E7EBF2E02081221F222734
:10110000221F3091B802432F440F842F822B37FBCC
:10111000992790F90A9668E671E00E94692B43814D
:1011200062810C9427082091B702221F2227221FD8
:101130003091B802432F440F842F822B37FB99271D
:1011400090F98A3091051CF4825A9E4F01C00A978B
:1011500068E671E00E94692B4091BA026091B90281
:101160000C9427086091B902862F90E08F3E91057C
:1011700014F46F5E01C06FEF8091B702881F88275B
:10118000881F9091B802292F220F97FB992790F979
:101190004091BA02822B0C9427086091B902862FE5
:1011A00090E0419714F0615101C060E08091B70276
:1011B000881F8827881F9091B802292F220F97FB3C
:1011C000992790F94091BA02822B0C9427084091FC
:1011D000BA02842F90E08F3E910514F44F5E01C057
:1011E0004FEF8091B702881F8827881F9091B8021F
:1011F000292F220F97FB992790F96091B902822B32
:101200000C9427084091BA02842F90E0419714F083
:10121000415101C040E08091B702881F8827881F94
:101220009091B802292F220F97FB992790F960918E
:10123000B902822B0C9427089091B70290FF3BC013
:101240009178811102C0926007C0883110F09E62CF
:1012500003C08F73880F982B9093B7026091B702E9
:101260007091B8028091B9029091BA020E949A07D7
:101270008091B702982F9E77923019F410926F01E7
:1012800009C0982F9695925C9F73963118F491E05F
:1012900090936F01881F8827881F9091B802292F8B
:1012A000220F97FB992790F94091BA026091B902F9
:1012B000822B0C94270808958091B70286958F732E
:1012C0008F5F883108F081E00C941C0980919402B2
:1012D00081608093940281E0809370010E942723B3
:1012E000811104C00E9408230E94A0070E94960753
:1012F0006093B7027093B8028093B9029093BA02D8
:101300006F3F7F4F8F4F9F4F21F40E94A0070E9495
:10131000B8078091B7028E7761F40E94A0070E94FF
:1013200096076093B7027093B8028093B9029093C6
:10133000BA0281E080936F018091B70280FF04C000
:1013400086958F730C941C090E94B80710926F0148
:1013500008958091B702982F909590FB80F9809323
:10136000B7026091B7027091B8028091B902909172
:10137000BA020E949A078091B70280FF04C0869546
:101380008F730C941C0910926F012FEF80E792E08D
:10139000215080409040E1F700C000000C94B80755
:1013A000CF93C82F80916D0190916E010E945A20B9
:1013B000EC2FF0E0EB59FE4FE491F0E08E179F0721
:1013C00018F10E94422090936E0180936D01E0918C
:1013D0006C01F0E0E759FE4F44918091B702881FFD
:1013E0008827881F9091B802292F220F97FB9927F1
:1013F00090F96091B902822B0E94DE0780916C0106
:1014000090E0019680936C01CF910895CF93C82FFF
:1014100080916A0190916B010E945A20EC2FF0E0BC
:10142000EE59FE4FE491F0E08E179F07E8F00E941E
:10143000422090936B0180936A014091BA026091BF
:10144000B90280916801909169010E94DE07809144
:10145000680190916901019668E671E00E94552B40
:101460009093690180936801CF910895CF92DF92A4
:10147000FF920F931F93CF93DF93F82E8091660115
:10148000909167010E945A20EF2DE695F0E0EE5909
:10149000FE4FE491F0E08E179F07E8F10E94422092
:1014A00090936701809366010FEB12E0C0E0D0E0FB
:1014B00088E6C82EDD24D394809164019091650163
:1014C0008C0F9D1FB6010E94552B98014091BA02C6
:1014D0006091B9020E942D07AD960D5F1F4FC8366F
:1014E00081E0D80749F70E94B80720916401309144
:1014F0006501F0FE0AC0C9010696BE010E94552B87
:10150000909365018093640106C0215031093093A6
:10151000650120936401DF91CF911F910F91FF909E
:10152000DF90CF9008958F929F92AF92BF92CF920B
:10153000DF92EF92FF920F931F93CF93DF93C82F09
:1015400080FF03C0DD24DA9402C0DD24D3948091AF
:101550006201909163010E945A20C695EC2FF0E041
:10156000EC5AFE4FE491F0E08E179F0708F466C036
:101570000E94422090936301809362019FEBE92EC9
:1015800092E0F92E01EC12E0C0E0D0E026E0822EDD
:10159000912CF80131971082F7011082F801108226
:1015A00086E0A82EB12CC12C809161018C0D87FDA5
:1015B000885F082E000C990BC817D907E9F4209111
:1015C000BA022A9DC0012B9D900D1124B4010E94E6
:1015D000692B462F8091B702881F8827881F90911A
:1015E000B802592F550F97FB992790F997016091F1
:1015F000B902852B0E942D07CD0CF1E0AF1AB1087E
:1016000099F6219683E0E80EF11C0D5F1F4FC8305C
:10161000D10509F0BECF0E94B8078091610191E029
:10162000D91206C0811102C08DE006C0815004C0ED
:1016300090E001968770992780936101DF91CF91A7
:101640001F910F91FF90EF90DF90CF90BF90AF90E0
:101650009F908F900895CF93DF93C82F80915F0163
:10166000909160010E945A20EC2FF0E0E65BFE4F63
:10167000E491F0E08E179F0708F46FC00E944220AB
:101680009093600180935F0180E090E0FC01E15461
:10169000FD4F118210821282039688319105B1F7B5
:1016A000C0E0D0E0C630D105B1F1FE01E770FF2700
:1016B00080915E01082E000C990B9F01220F331FB1
:1016C000E20FF31FC817D907FCF080910201082E22
:1016D000000C990B8C179D07BCF09F0121543D4FC6
:1016E0008091B702881F8827881F9091B802592FD0
:1016F000550F97FB992790F94091BA026091B90272
:10170000852B0E942D0705C0E154FD4F11821082E8
:1017100012822196C7CF0E94B807C0910101609143
:101720005E016C0F60935E01809102018C0F8093CB
:10173000020118167CF4062E000C770B880B990B0F
:101740000E94332A2BEA3AEA4AE850E40E94972A98
:1017500087FD03C0C195C0930101DF91CF9108952A
:1017600080916F01882309F440C08091B70286956B
:101770008F739EE3980F9F73943018F482500C94EB
:10178000D0099AE3980F9F73933018F486500C9405
:10179000060A97E3980F9F73963018F489500C94BB
:1017A000360A91E3980F9F73963090F4282F30E01B
:1017B00080FF07C02E503109822F880F880F820FBB
:1017C00005C094E0299F800D11248A540C94930A3B
:1017D0009AE2980F9F73933040F490E04697982FC9
:1017E000990F890F8E5F0C942B0B089580917101D6
:1017F0000895089508950F931F93CF93DF938A3E22
:10180000910509F474C0C8F5863B910509F478C0C8
:10181000C0F4833B910509F47EC040F4823B9105FE
:1018200009F081C000E010E0D8E082C0843B91055F
:1018300009F475C0853B910509F075C000E010E41E
:1018400076C08D3C910509F455C068F4873B91053D
:1018500009F453C0883B910509F065C000E010E031
:10186000D0E0C0E266C0823E9105F1F1893E91056B
:1018700009F059C000E014E05AC0833222E0920718
:1018800089F1A8F4823921E0920709F440C030F4CC
:101890008A38914009F047C000E848C0843921E007
:1018A000920789F181329240F1F500E13FC0863222
:1018B00022E0920799F048F4843222E09207A9F1DD
:1018C0008532924081F502E031C0873222E09207F2
:1018D00039F08A32924039F500E228C004E026C08F
:1018E00008E024C000E422C000E011E020C000E0D5
:1018F00012E01DC000E018E01AC000E010E117C0BF
:1019000000E010E214C000E010E0D1E011C000E0FF
:1019100010E0D2E00DC000E010E0D0E109C000E02E
:1019200010E0D0E205C000E001C001E010E0D0E02E
:10193000C0E088E00E94870280E00E94870281EA7E
:101940000E94870283E00E948702802F0E94870204
:10195000812F0E9487028D2F0E9487028C2FDF919A
:10196000CF911F910F910C948702CF93DF93EC01DD
:101970008CE00E94870280E00E94870281EA0E9438
:10198000870281E00E94870288810E94870280E0AE
:101990000E9487028A810E9487028B810E948702AF
:1019A0008C810E9487028D810E9487028E810E9415
:1019B00087028F81DF91CF910C94870285B7806871
:1019C00085BF85B7806885BF849A879A8F98089568
:1019D00081B38095881F8827881F08958F9A08955E
:1019E0008F9808950E944E2060937701709378013C
:1019F0008093790190937A01089580917B01811100
:101A00001EC00E946C148350914059F00E94B81976
:101A100080911801809376011092180183E091E083
:101A20001EC080917501811125C08091DB02843038
:101A300009F581E080937B01809375011BC00E94B2
:101A40006C148D50914071F081E0809375010E947B
:101A5000B81980917601809318018DE091E00E9481
:101A6000671408C08091DB02843021F010927B0162
:101A70001092750180917201811116C080917401DC
:101A8000811112C060917701709178018091790184
:101A900090917A010E9484206133754781059105F8
:101AA00018F081E0809374010E94E80C8823C1F053
:101AB000809174018823A1F0609177017091780181
:101AC0008091790190917A010E94842061387E4E44
:101AD0008643910528F081E0809373010C94EE0C0D
:101AE00008958331E9F0883181F0853009F50E944D
:101AF000B8192FEF83ED90E3215080409040E1F73B
:101B000000C000000E94D62011C080917B01882374
:101B100019F010927B01089581E080937B01089574
:101B20009091720181E089278093720181E008958C
:101B300080E0089584B7877F84BF0FB6F894A89596
:101B400080916000886180936000109260000FBEF9
:101B500090E080E80FB6F894809361009093610064
:101B60000FBE85B7806885BF85B7806885BF0E9436
:101B700084110E94E1118091E20084608093E20070
:101B800078948FEF9091DB028150943041F0EFE731
:101B9000FEE33197F1F700C000008111F3CF80918F
:101BA000DB02843019F481E080937B010E94DE0C1B
:101BB0000E94F20C0E94A91480917401882391F074
:101BC0000E94F8200E942321882361F01092740162
:101BD0000E94522980917301882321F01092730191
:101BE0000E94F00C809173018111E6CF0E94B51420
:101BF0000E94FD0CE1CF80919D0108950895CF933F
:101C0000DF9300D01F92CDB7DEB79C018091DB023D
:101C1000843019F593E099833B832A839093E900FC
:101C20008FEF9091E800815095FD06C095ED9A9553
:101C3000F1F700008111F5CF8091E80085FF0DC01C
:101C400040E050E063E070E0CE0101960E94EF0FAB
:101C50008091E8008E778093E8000F900F900F90AE
:101C6000DF91CF9108952091DB022430F1F422E03E
:101C70002093E9002FEF3091E800215035FD06C098
:101C800035ED3A95F1F700002111F5CF2091E800EC
:101C900025FF0BC040E050E065E070E00E94EF0FD0
:101CA0008091E8008E778093E8000895CF93DF93CA
:101CB000EC019091DB02943009F046C0809117014D
:101CC0008823D9F0809118018823B9F09093E90016
:101CD0008FEF9091E800815095FD06C095E19A95AF
:101CE000F1F700008111F5CF8091E80085FF2CC04D
:101CF00040E050E060E270E017C081E08093E900CE
:101D00008FEF9091E800815095FD06C095ED9A9572
:101D1000F1F700008111F5CF8091E80085FF14C034
:101D200040E050E068E070E0CE010E94EF0F80914B
:101D3000E8008E778093E80080E2FE01ADE7B1E035
:101D400001900D928A95E1F7DF91CF9108958091EE
:101D5000DA02811109C00E9484110E94E111809170
:101D6000E20084608093E20008951092DA02089500
:101D7000089542E061EC81E00E94FE1042E061ECD7
:101D800082E00E94FE1042E061EC83E00E94FE10BF
:101D900042E261EC84E00C94FE108091DD0283301D
:101DA00009F455C030F4813071F0823009F48EC0EE
:101DB00008958A3009F47AC08B3009F460C0893004
:101DC00009F09CC020C08091DC02813A09F096C0E5
:101DD0008091E800877F8093E8008091E0029091F5
:101DE000E102892B21F460E28DE791E003C060E01D
:101DF00080E090E070E00E943A108091E8008B77DC
:101E00008093E80008958091DC02813209F076C069
:101E10008091E0029091E102009719F0039709F098
:101E20006DC08091E800877F8093E8008091E80092
:101E300082FD05C08091DB028111F8CF5FC08091E7
:101E4000F10080939D018091E8008B7753C08091D1
:101E5000DC02813A09F052C08091E0029091E102E7
:101E6000892B09F04BC08091E800877F8093E800C0
:101E70008091E80080FFFCCF8091170136C08091EF
:101E8000DC028132D9F58091E0029091E102892B48
:101E9000A9F58091E800877F8093E8000E943311C4
:101EA0008091DE02809317010C94B8198091DC02B6
:101EB000813221F58091E800877F8093E8000E94BD
:101EC00033118091DF0280939E0108958091DC029E
:101ED000813AA1F48091E800877F8093E8008091A7
:101EE000E80080FFFCCF80919E018093F1008091FB
:101EF000E8008E778093E8000C9433110895809168
:101F00009D0180937C0110929D0180E00E948905D3
:101F10000E946E150C94B8190C947F0F0E94382102
:101F200080917C0180939D0108950C948E0F292F40
:101F3000332723303105C9F064F42130310581F0B5
:101F40002230310509F043C08DE690E02BE932E004
:101F500042C021323105F1F02232310541F137C062
:101F600082E190E028E033E036C099278130910586
:101F700041F08230910541F0892B49F5E7E9F2E023
:101F800005C0EBE8F2E002C0E9E6F2E0849190E0FF
:101F90009F0121C06430D8F4E62FF0E0EE0FFF1F60
:101FA000E25DFE4F2081318189E090E014C0643011
:101FB00070F470E0FB01EE0FFF1FEA5DFE4F208121
:101FC0003181FB01EE5DFE4F808190E004C080E036
:101FD00090E020E030E0FA01318320830895CF9231
:101FE000DF92EF92FF920F931F93CF93DF93EC0159
:101FF0008B016A010E945211811133C0C114D104B6
:1020000039F0F60180819181081B190BC80FD91F87
:10201000E12CF12C0115110519F18091E80085FDE5
:1020200016C08091E8008E778093E800C114D10437
:1020300049F0F60180819181E80EF91EF182E0827B
:1020400085E00FC00E945211882321F30AC08991B4
:102050008093F10001501109FFEFEF1AFF0ADACF68
:1020600080E0DF91CF911F910F91FF90EF90DF9073
:10207000CF9008952091E2023091E30226173707AE
:1020800048F06115710539F42091E8002E7720930E
:10209000E80001C0B90140E061157105A9F1209186
:1020A000DB02222309F443C0253009F442C0209109
:1020B000E80023FD40C02091E80022FD32C02091BD
:1020C000E80020FFE9CF4091F3002091F20030E0DA
:1020D000342BFC01CF016115710559F02830310511
:1020E00040F481918093F100615071092F5F3F4F5F
:1020F000F1CF41E02830310509F040E02091E800BF
:102100002E772093E800C8CF4111C9CF0AC0809133
:10211000DB02882361F0853061F08091E80083FD67
:102120000AC08091E80082FFF2CF80E0089582E04B
:10213000089583E0089581E008952091E2023091AE
:10214000E3022617370748F06115710539F420912D
:10215000E8002E772093E80001C0B901FC0120E0DF
:102160006115710591F18091DB02882309F440C06B
:10217000853009F43FC08091E80083FD3DC0809127
:10218000E80082FD2FC08091E80080FFE9CF209118
:10219000F3008091F20090E0922B6115710559F0E7
:1021A0008830910540F424912093F10031966150DC
:1021B00071090196F2CF21E0089709F020E08091A3
:1021C000E8008E778093E800CBCF2111CCCF0AC0F6
:1021D0008091DB02882361F0853061F08091E80016
:1021E00083FD0AC08091E80082FFF2CF80E008956D
:1021F00082E0089583E0089581E00895982F973054
:1022000058F59093E900981739F07091EC002091FF
:10221000ED005091F00003C0242F762F50E021FFF5
:1022200019C03091EB003E7F3093EB003091ED0010
:102230003D7F3093ED003091EB0031603093EB0047
:102240007093EC002093ED005093F0002091EE008D
:1022500027FF07C09F5FD3CF8F708093E90081E095
:10226000089580E008958091DC0287FF11C080917D
:10227000E80082FD05C08091DB028111F8CF11C01A
:102280008091E8008B770BC08091DB02882349F0B6
:102290008091E80080FFF8CF8091E8008E778093EE
:1022A000E80008952091E4003091E50095E6409122
:1022B000EC00842F817040FF22C08091E80080FDF7
:1022C0001CC08091DB02882391F0853091F08091D1
:1022D000EB0085FD10C04091E4005091E5004217ED
:1022E000530729F39A01915011F784E0089582E091
:1022F000089583E0089581E0089580E00895409175
:10230000E80042FFDECF08950E94F2110E94FA1108
:10231000E0EEF0E0808181608083E8EDF0E0808194
:102320008F77808319BCA7EDB0E08C918E7F8C9362
:1023300080818F7E80831092DA0208950F931F931D
:10234000CF93DF930E94F2110E94FA11C8EDD0E002
:1023500088818F77888388818068888388818F7D52
:10236000888319BC1092DB021092D7021092D90216
:102370001092D80200EE10E0F80180818B7F8083FC
:1023800088818160888342E060E080E00E94FE10E6
:10239000E1EEF0E080818E7F8083E2EEF0E08081EC
:1023A00081608083808188608083F80180818E7F56
:1023B0008083888180618883DF91CF911F910F9105
:1023C0000895E8EDF0E080818F7E8083E7EDF0E016
:1023D00080818160808384E082BF81E08093DA0223
:1023E0000C949E11E8EDF0E080818E7F8083109246
:1023F000E20008951092DA001092E10008951F9211
:102400000F920FB60F9211242F933F934F935F9328
:102410006F937F938F939F93AF93BF93EF93FF93AC
:102420008091E10082FF0BC08091E20082FF07C033
:102430008091E1008B7F8093E1000E94661480917F
:10244000DA0080FF1FC08091D80080FF1BC0809100
:10245000DA008E7F8093DA008091D90080FF0DC072
:1024600080E189BD82E189BD09B400FEFDCF81E034
:102470008093DB020E94A70E05C019BC1092DB02FC
:102480000E94B50E8091E10080FF19C08091E200AA
:1024900080FF15C08091E2008E7F8093E2008091E2
:1024A000E20080618093E2008091D8008062809396
:1024B000D80019BC85E08093DB020E948C0F8091CC
:1024C000E10084FF30C08091E20084FF2CC080E1F5
:1024D00089BD82E189BD09B400FEFDCF8091D8009D
:1024E0008F7D8093D8008091E1008F7E8093E10002
:1024F0008091E2008F7E8093E2008091E200816013
:102500008093E2008091D702882311F084E007C015
:102510008091E30087FD02C081E001C083E08093E9
:10252000DB020E94950F8091E10083FF29C080911A
:10253000E20083FF25C08091E100877F8093E10066
:1025400082E08093DB021092D7028091E1008E7FBF
:102550008093E1008091E2008E7F8093E200809181
:10256000E20080618093E20042E060E080E00E944F
:10257000FE108091F00088608093F0000E94B80EF9
:10258000FF91EF91BF91AF919F918F917F916F914B
:102590005F914F913F912F910F900FBE0F901F9021
:1025A00018951F920F920FB60F9211242F933F93FD
:1025B0004F935F936F937F938F939F93AF93BF934B
:1025C000CF93DF93EF93FF93C091E900CF70809199
:1025D000EC00D82FD17080FDD0E81092E9008091F6
:1025E000F000877F8093F00078940E94151310927A
:1025F000E9008091F00088608093F000CD2BCF70CF
:10260000C093E900FF91EF91DF91CF91BF91AF911E
:102610009F918F917F916F915F914F913F912F91FA
:102620000F900FBE0F901F9018951F93CF93DF93BD
:10263000CDB7DEB7AA970FB6F894DEBF0FBECDBFF9
:10264000ECEDF2E088E08E0F9091F10091938E1303
:10265000FBCF0E94CD0E8091E80083FF1FC18091C7
:10266000DC029091DD02492F50E04A30510508F01C
:1026700015C1FA01EA59FF4F0C947D2B803881F087
:10268000823809F00BC18091E0028F708093E900DD
:102690008091EB0085FB882780F91092E90006C045
:1026A0008091D8029091D902911182609091E800B6
:1026B000977F9093E8008093F1001092F100C8C0DA
:1026C000282F2D7F09F0EAC0882319F0823061F0AD
:1026D000E5C08091DE02813009F0E0C0933009F05E
:1026E00080E08093D9022BC08091DE02811127C047
:1026F0008091E0028F7009F4D1C08093E9002091AD
:10270000EB0020FF1CC0933021F48091EB0080622D
:1027100014C09091EB0090619093EB0021E030E0C9
:10272000A90102C0440F551F8A95E2F74093EA00C1
:102730001092EA008091EB0088608093EB00109289
:10274000E9008091E800877F86C08111A7C01091C1
:10275000DE021F778091E3008078812B8093E30075
:102760008091E800877F8093E8000E943311809178
:10277000E80080FFFCCF8091E30080688093E30055
:10278000111102C082E001C083E08093DB0286C0A9
:102790008058823008F082C08091DE029091DF0282
:1027A0008C3D53E0950779F583E08A838AE289833B
:1027B0004FB7F894DE01139620E03EE051E2E32F9C
:1027C000F0E050935700E49120FF03C0E295EF70D2
:1027D0003F5FEF708E2F90E0EA3010F0C79601C097
:1027E000C0968D939D932F5F243149F74FBF809101
:1027F000E800877F8093E8006AE270E0CE010196EE
:102800000E943A1014C0AE014F5F5F4F6091E0022A
:102810000E94970FBC01892B09F440C09091E800F9
:10282000977F9093E80089819A810E949D10809102
:10283000E8008B778093E80031C0803879F580918B
:10284000E800877F8093E8008091D7028093F100B1
:102850008091E8008E778093E8000E9433111EC0BB
:1028600081111CC09091DE029230C0F48091E8008A
:10287000877F8093E8009093D7020E943311809164
:10288000D702811106C08091E30087FD02C081E07C
:1028900001C084E08093DB020E94B90E8091E800C1
:1028A00083FF0AC08091E800877F8093E8008091D1
:1028B000EB0080628093EB00AA960FB6F894DEBF1F
:1028C0000FBECDBFDF91CF911F91089508959093D2
:1028D000A2018093A10108958091A1019091A2018C
:1028E0000895E091A101F091A201309721F00190AB
:1028F000F081E02D099480E00895E091A101F0912C
:10290000A201309721F00280F381E02D099408950F
:10291000E091A101F091A201309721F00480F581AE
:10292000E02D0994089520919F013091A001821714
:10293000930771F09093A00180939F01E091A10112
:10294000F091A201309721F00084F185E02D0994E7
:1029500008950E9439200E94CF030E94C2210E9444
:102960000A050E94E5270C9452295F926F927F928C
:102970008F929F92AF92BF92CF92DF92EF92FF928F
:102980000F931F93CF93DF9300D000D01F92CDB74A
:10299000DEB70E94FD0304EA11E0512C88248394E1
:1029A000912C852D0E9400055C01F801C080D1802A
:1029B000C826D926C114D10439F453940E5F1F4F91
:1029C000F5E05F12EECF3FC08091940281FD0E943E
:1029D0000905E12CF12C34010E2C02C0660C771C89
:1029E0000A94E2F7C3018C219D21892B21F1E98210
:1029F0005A8221E0C3018A219B21892B09F420E01E
:102A00002B830E9442208160782F9D838C83498193
:102A10005A816B818D810E94711549815A816B8128
:102A20007C818D810E94B406F801808191816826A5
:102A3000792671826082FFEFEF1AFF0A8EE0E816B6
:102A4000F10449F6BACF8FEF89838A831B820E94F3
:102A500042208160782F9D838C8349815A816B81CC
:102A60008D810E9471150E9435200E94D024109102
:102A7000A3010E9471141817D1F00E947114809361
:102A8000A3010F900F900F900F900F90DF91CF91B7
:102A90001F910F91FF90EF90DF90CF90BF90AF907C
:102AA0009F908F907F906F905F900C9436200F9046
:102AB0000F900F900F900F90DF91CF911F910F917A
:102AC000FF90EF90DF90CF90BF90AF909F908F904E
:102AD0007F906F905F9008950C94890508950895F4
:102AE0000895CF93DF93CDB7DEB72B970FB6F89449
:102AF000DEBF0FBECDBF942F4F83252F5887698728
:102B00007A878B874A855B85452B21F02F3F09F516
:102B10009F3FF9F4DE01119686E0FD0111928A953E
:102B2000E9F785E0FE01379601900D928A95E1F76D
:102B300049815A816B817C818D819E810E94831C99
:102B40002B960FB6F894DEBF0FBECDBFDF91CF91AD
:102B500008954F81588569857A858B850E94B406D2
:102B6000D9CFCF93882309F452C0C82F8CEF8C0F94
:102B7000813A20F080E58C0F8E3248F48C2F0E9431
:102B80004D27811144C08C2F0E944C1F0CC080E245
:102B90008C0F883058F4C77081E001C0880FCA9547
:102BA000EAF70E94D51FCF910C940F2088E58C0F77
:102BB000873168F5C83A89F0C93A91F0CA3A99F074
:102BC000CB3AA1F0CC3AA9F0CD3AB1F0CE3AB9F077
:102BD000CF3AC1F080E090E017C082EE90E014C0E0
:102BE00089EE90E011C08AEE90E00EC085EB90E097
:102BF0000BC086EB90E008C083EB90E005C084EB4F
:102C000090E002C087EB90E0CF910C949314CF91A9
:102C10000895882309F19CEF980F913A20F090E5F0
:102C2000980F9E3218F40E948E1F0DC090E2980FEC
:102C3000983058F4877091E001C0990F8A95EAF7AF
:102C4000892F0E94DB1F0C940F20885A873120F4B3
:102C500080E090E00C9493140895882321F00E9462
:102C6000D51F0C940F200895882321F00E94DB1FAC
:102C70000C940F200895CF92DF92EF92FF920F9362
:102C80001F93CF93DF93CDB7DEB727970FB6F89496
:102C9000DEBF0FBECDBF25E0FC01DE011196019025
:102CA0000D922A95E1F7FC014081518102816381F7
:102CB0007481258122952F706115710509F43BC33C
:102CC0005F3F19F44F3F09F436C36C01862F7D83B3
:102CD0006C83602F782F8D812F830E94DF1E182F29
:102CE0009E830E94DE1E0E94CE1D3E81E32FE29550
:102CF000EF70F0E0E059FF4F2F810C947D2B832F74
:102D0000807F932F9F70F92E882319F0F29490EF13
:102D1000F922002349F0FF2009F44CC28F2D0E94B4
:102D2000E81F0E940F2046C2812F0E940916FF2033
:102D300009F401C38F2D0E94EE1F27960FB6F89459
:102D4000DEBF0FBECDBFDF91CF911F910F91FF90DE
:102D5000EF90DF90CF900C940F20832F807F932FE4
:102D60009F70F92E803219F0F29480EFF82211232F
:102D700019F0113001F129C00023A9F08F2D222371
:102D800049F1213039F527960FB6F894DEBF0FBE12
:102D9000CDBFDF91CF911F910F91FF90EF90DF900A
:102DA000CF900C94F81F222319F0213009F4C3C2EC
:102DB0000E94FB1F2CC00023E9F0233008F0BBC2A7
:102DC0000E94D21F8F2129F022C00023F1F021118F
:102DD00015C08F2D27960FB6F894DEBF0FBECDBF5E
:102DE000DF91CF911F910F91FF90EF90DF90CF90E7
:102DF0000C942D16223008F09EC209C0F601858180
:102E000080FFD8C18F708583E4CF2111E7C18F2D5A
:102E100055C1832F86958695837009F08CC2002357
:102E200021F0812F932F937002C080E090E02796CD
:102E30000FB6F894DEBF0FBECDBFDF91CF911F91CB
:102E40000F91FF90EF90DF90CF900C949314812F0F
:102E5000002381F00E94D8230E94C524163408F074
:102E60006AC2E12FF0E0E155FE4F81E0808380935C
:102E7000AE0161C20E9440240E94C524163408F0AD
:102E80005AC2E12FF0E0E155FE4F10821092AE01E0
:102E900052C2832F837009F078C001114CC2812F78
:102EA000829586958770880F880F912F9F70C92E05
:102EB000D12CE12CF12C082E04C0CC0CDD1CEE1C16
:102EC000FF1C0A94D2F714FF12C04FE050E060E0FC
:102ED00070E004C0440F551F661F771F8A95D2F714
:102EE000CB01BA01609570958095909503C060E024
:102EF00070E0CB01232F269526952370422F50E0BA
:102F000042305105D1F04330510559F16C297D29EA
:102F10008E299F294130510541F127960FB6F8942B
:102F2000DEBF0FBECDBFDF91CF911F910F91FF90FC
:102F3000EF90DF90CF900C94F31D6C297D298E29A2
:102F40009F2927960FB6F894DEBF0FBECDBFDF9145
:102F5000CF911F910F91FF90EF90DF90CF900C9445
:102F60000D1E0E94F31DC701B60127960FB6F894F7
:102F7000DEBF0FBECDBFDF91CF911F910F91FF90AC
:102F8000EF90DF90CF900C94D91D002319F0832F80
:102F9000817001C08695882309F4CDC1812F829567
:102FA00086958770880F880F912F9F70C92ED12C1E
:102FB000E12CF12C082E04C0CC0CDD1CEE1CFF1CF7
:102FC0000A94D2F714FF12C04FE050E060E070E0C6
:102FD00004C0440F551F661F771F8A95D2F7CB0197
:102FE000BA01609570958095909503C060E070E09F
:102FF000CB01232F269526952370422F50E0423097
:103000005105D1F04330510559F16C297D298E29A4
:103010009F294130510541F127960FB6F894DEBF44
:103020000FBECDBFDF91CF911F910F91FF90EF9019
:10303000DF90CF900C94BA1E6C297D298E299F2990
:1030400027960FB6F894DEBF0FBECDBFDF91CF91AC
:103050001F910F91FF90EF90DF90CF900C94CC1EBA
:103060000E94BA1EC701B60127960FB6F894DEBFBC
:103070000FBECDBFDF91CF911F910F91FF90EF90C9
:10308000DF90CF900C94A81E103F41F118F4103E31
:1030900048F48BC0123F09F450C0D8F1133F09F433
:1030A00060C083C01F70832F8F71002321F00E94A6
:1030B000411E812F8FCE0E94621E812F27960FB650
:1030C000F894DEBF0FBECDBFDF91CF911F910F915E
:1030D000FF90EF90DF90CF900C9434160023A9F06E
:1030E000223008F028C1832F8F7127960FB6F894ED
:1030F000DEBF0FBECDBFDF91CF911F910F91FF902B
:10310000EF90DF90CF900C94871E233008F013C10E
:10311000EACF0023A1F0832F8F7127960FB6F89482
:10312000DEBF0FBECDBFDF91CF911F910F91FF90FA
:10313000EF90DF90CF900C94411E002361F3832F1A
:103140008F7127960FB6F894DEBF0FBECDBFDF910B
:10315000CF911F910F91FF90EF90DF90CF900C9443
:10316000621E002391F0832F8F7127960FB6F8947B
:10317000DEBF0FBECDBFDF91CF911F910F91FF90AA
:10318000EF90DF90CF900C942C1E27960FB6F894FA
:10319000DEBF0FBECDBFDF91CF911F910F91FF908A
:1031A000EF90DF90CF900C94271E0023A1F02223F4
:1031B00009F4B1CF812F27960FB6F894DEBF0FBE6A
:1031C000CDBFDF91CF911F910F91FF90EF90DF90D6
:1031D000CF900C94B115222309F4B1CF812F2796FB
:1031E0000FB6F894DEBF0FBECDBFDF91CF911F9118
:1031F0000F91FF90EF90DF90CF900C940916432F22
:103200004F70612FC6010E94652127960FB6F89472
:10321000DEBF0FBECDBFDF91CF911F910F91FF9009
:10322000EF90DF90CF900C94271D011184C01123E3
:1032300051F0832F8F70843031F0932F907F212FA6
:103240002F70392F322B932F9F70892F90E082306F
:103250009105E9F1ACF4009751F1019709F06BC0C9
:1032600027960FB6F894DEBF0FBECDBFDF91CF918A
:103270001F910F91FF90EF90DF90CF900C947E29DB
:1032800083309105A1F1049709F055C0812F27964D
:103290000FB6F894DEBF0FBECDBFDF91CF911F9167
:1032A0000F91FF90EF90DF90CF900C94E329279639
:1032B0000FB6F894DEBF0FBECDBFDF91CF911F9147
:1032C0000F91FF90EF90DF90CF900C946729279695
:1032D0000FB6F894DEBF0FBECDBFDF91CF911F9127
:1032E0000F91FF90EF90DF90CF900C94A12927963B
:1032F0000FB6F894DEBF0FBECDBFDF91CF911F9107
:103300000F91FF90EF90DF90CF900C94C029432F46
:103310004F70612FC60127960FB6F894DEBF0FBE1F
:10332000CDBFDF91CF911F910F91FF90EF90DF9074
:10333000CF900C94DB0227960FB6F894DEBF0FBE39
:10334000CDBFDF91CF911F910F91FF90EF90DF9054
:10335000CF9008950E94F51F0E94C41F0E940F2065
:103360000E94B5250E94C52480E090E00C9493143F
:103370000E94E51F0C94AA19CF93DF9300D000D0D0
:103380001F92CDB7DEB70E94DF1E292F22952F7026
:1033900030E02C3031054CF42A303105C4F4225091
:1033A00031092230310540F023C02C303105D1F0F5
:1033B0002F303105B9F01CC0853A28F48430B0F4C0
:1033C000823028F413C090E2980F983078F0883E4D
:1033D00030F4803E58F48450813A50F407C0803F66
:1033E00039F404C093FB882780F903C081E001C051
:1033F00080E00F900F900F900F900F90DF91CF9182
:103400000895CF93DF9300D000D01F92CDB7DEB7E1
:103410000F900F900F900F900F90DF91CF91089524
:10342000CF93DF9300D000D000D0CDB7DEB7269683
:103430000FB6F894DEBF0FBECDBFDF91CF910895D8
:103440001F93CF93DF93C091EB0116E08091EC01C5
:10345000C81799F0D0E01C9FF0011D9FF00D1124BA
:10346000E351FE4F40815181628173818481958156
:103470000E94101A2196C770E9CFDF91CF911F915A
:10348000089540911D0250911E0260911F0270919B
:10349000200280912102909122020C94101A8091B6
:1034A000220282958F7009F054C080911F028823F8
:1034B00009F44FC08091EB01A091EC0160911D02D5
:1034C00070911E024091200250912102B6E08A17AD
:1034D00009F43FC090E041155105C1F17F3F11F45F
:1034E0006F3FA1F1B89FF001B99FF00D1124E35196
:1034F000FE4F218172132AC02081621327C02281CE
:10350000211124C0238134812417350710F4215060
:103510003109241B350B243B3105C0F420912202D4
:103520002F7020612093220226E0289FF001299F1E
:10353000F00D1124EE50FE4F80818F7080618083EA
:103540008DE192E00E943B160C94201A0196877040
:10355000BECF0895BF92CF92DF92EF92FF920F936A
:103560001F93CF93DF93CDB7DEB761970FB6F89473
:10357000DEBF0FBECDBF7C0185E0F701DE011D96E9
:1035800001900D928A95E1F7D7014C9111965C91CB
:1035900011971296DC90129713960D911C91149727
:1035A00030911D0260911E028091200290912102B3
:1035B000009709F477C16F3F19F43F3F09F472C1D6
:1035C000B0901F02BB2009F4C5C020912202081749
:1035D000190728F0F801E81BF90BCF0104C080950A
:1035E0009095800F911FCC24C394843B910580F06B
:1035F000C12C207F09F0CCC0702F198B088B6D2D4A
:1036000089890E94011A8DE192E00E943B16B6C0A2
:10361000822F807F09F047C0651314C0341312C095
:10362000D11010C02F702061209322020E94411AF5
:103630008DE192E00E943B1680912202D7011596FF
:103640008C932FC00115110519F15F3F11F44F3F05
:10365000F9F0CD2CD1101CC08091EB012091EC0130
:1036600036E0821709F45CC090E0389FF001399F82
:10367000F00D1124E351FE4F6181561306C06081A5
:10368000461303C06281611103C001968770E9CFC0
:10369000CD2CDD2009F426C1809122028160809327
:1036A0002202C12C1FC1651308C0341306C0D110FB
:1036B00004C080912202D701C9C04D875E87DF8692
:1036C000702F198B088B6D2D89890E94BC19882356
:1036D000E9F1DD20D9F120912202822F82958F70AD
:1036E00090E0029774F080911D0290911E029887DD
:1036F0008F8319861B870A872C87CE0107960E9425
:103700003B1686E0F701ADE1B2E001900D928A959B
:10371000E1F70E944F1A0E94411ACC24C394E2C0E0
:10372000702F198B088B60E089890E94DF1E292F7A
:1037300022952F7030E0223031050CF0C7C09F7009
:1037400009F0C1C0805E883008F4CCC0C7010E9477
:103750003B16E3CF0817190708F456C0F801E81B19
:10376000F90BCF01843B910508F453C0C12C702F95
:10377000198B088B6D2D89890E94011AEDE1F2E009
:1037800086E0DF011D928A95E9F70E94411AAAC0DE
:10379000651314C0341312C0D11010C080912202DE
:1037A000F7018583C7010E943B1686E0EDE1F2E058
:1037B000DF011D928A95E9F7CB2C94C04D875E8777
:1037C000DF86702F198B088B6D2D89890E94BC199B
:1037D000882309F4BBCFDD2009F4B8CF2091220261
:1037E000822F82958F7090E002970CF48ACF80919F
:1037F0001D0290911E029A8389831B821D830C8374
:103800002E83CE0101967BCF80959095800F911FDE
:10381000A9CFCD2CDD2009F499CF65132EC0341328
:103820002CC02091220220FD1FC0822F82958F7014
:10383000D9F0D70115962C9315978F3049F08F5FEB
:10384000982F9295907F822F8F70892B15968C934D
:10385000C7010E943B1686E0F701ADE1B2E001909E
:103860000D928A95E1F791CF86E0F701ADE1B2E0E4
:1038700001900D928A95E1F735C04D875E87DF860E
:10388000702F198B088B6D2D89890E94BC198111AD
:1038900038CF80912202816080932202C7010E946A
:1038A0003B1620C0DD2009F451CF4D875E87DF86AF
:1038B000702F198B088B6D2D89890E94BC19882364
:1038C00009F444CF1ECF81113DCF0CC02430310507
:1038D0000CF03CCF9F7009F435CFF7019581907FB4
:1038E00009F030CF8C2D61960FB6F894DEBF0FBE75
:1038F000CDBFDF91CF911F910F91FF90EF90DF909F
:10390000CF90BF9008951F93CF93DF93CDB7DEB7CD
:103910002C970FB6F894DEBF0FBECDBF4F835887EC
:1039200069877A878B879C87CE0107960E94AA1A9F
:10393000882369F08F8198852A853B85232BF1F1B7
:103940009F3F09F063C08F3F09F060C037C086E039
:10395000FE013796DE01119601900D928A95E1F7EE
:103960006F817885EA85FB85309741F17F3F11F4BF
:103970006F3F21F12091EC0130E0C9010196877081
:1039800099274091EB0150E08417950709F447C04F
:1039900069837A83FD83EC8396E0929FD001939FA5
:1039A000B00D1124A351BE4FFE01319601900D922E
:1039B0009A95E1F78093EC010E94201A16E080911D
:1039C000EB019091EC018917C1F1189FC0011124FE
:1039D00083519E4F0E94AA1A882379F1E091EB014E
:1039E0001E9FF0011124E351FE4F408151816281FD
:1039F0007381848195810E94101A8091EB0190E07F
:103A00000196877099278093EB01D9CF4F81588514
:103A100069857A858B859C850E94101ACFCF0E947C
:103A2000B8191092EC011092EB01EDE1F2E086E0A2
:103A3000DF011D928A95E9F7C1CF2C960FB6F89455
:103A4000DEBF0FBECDBFDF91CF911F910895DF92F2
:103A5000EF92FF920F931F93CF93DF93FC01892B7B
:103A600009F48AC0E12CF12CDD24D394EF012196D6
:103A70008491853709F461C058F4843708F04EC04A
:103A8000843008F06AC08130D1F0823071F174C0A6
:103A9000883709F45DC050F4863709F455C087377C
:103AA00009F06AC08E2D0E94E21F54C09CE7980F57
:103AB000903708F061C08F770E94091650C08F01BF
:103AC0000E5F1F4FFE01849190E2980F983050F4E2
:103AD0008770FD2D01C0FF0F8A95EAF78F2F0E9496
:103AE000E81F14C00E94B11513C08F010E5F1F4F55
:103AF000FE01C49180E28C0F883060F4C7708D2D78
:103B000001C0880FCA95EAF70E94EE1F0E940F209D
:103B1000E80125C08C2F0E940916FACF9F012E5F65
:103B20003F4FFE01C491CC2369F08FE99FE00197DC
:103B3000F1F700C00000C150F6CF9F012E5F3F4F4C
:103B4000FE01F490E9010BC00E94D21FE82E07C0CD
:103B50000E94E51F0E940F2002C00E94B1158F2D08
:103B6000882341F0EFE9FFE03197F1F700C0000052
:103B70008150F6CFFE017ACFDF91CF911F910F9147
:103B8000FF90EF90DF9008956093690270936A024E
:103B900080936B0290936C020C94B405089560932B
:103BA0006D0270936E0280936F02909370020C947A
:103BB000F3050F931F9300916D0210916E022091F7
:103BC0006F0230917002602B712B822B932B6093CC
:103BD0006D0270936E0280936F02909370021F913A
:103BE0000F910C94F3050F931F9300916D021091A8
:103BF0006E0220916F023091700260237123822344
:103C0000932360936D0270936E0280936F02909382
:103C100070021F910F910C94F3050F931F93009165
:103C20006D0210916E0220916F0230917002602738
:103C300071278227932760936D0270936E028093A1
:103C40006F02909370021F910F910C94F30560E046
:103C500070E0CB010C94C41D0F931F9341E050E022
:103C600060E070E08A019B0104C0000F111F221F59
:103C7000331F8A95D2F7C901B8011F910F910C9497
:103C8000C41D0F931F9341E050E060E070E004C05A
:103C9000440F551F661F771F8A95D2F780916902DE
:103CA00090916A02A0916B02B0916C028A019B0113
:103CB000082B192B2A2B3B2BC901B8011F910F91FF
:103CC0000C94C41D0F931F9341E050E060E070E03E
:103CD00004C0440F551F661F771F8A95D2F7409581
:103CE0005095609570958091690290916A02A091BB
:103CF0006B02B0916C028A019B01082319232A23CD
:103D00003B23C901B8011F910F910C94C41D0F935F
:103D10001F9341E050E060E070E004C0440F551F85
:103D2000661F771F8A95D2F78091690290916A0287
:103D3000A0916B02B0916C028A019B0108271927A0
:103D40002A273B27C901B8011F910F910C94C41D6C
:103D50000F931F930091690210916A0220916B02E8
:103D600030916C02602B712B822B932B1F910F9142
:103D70000C94C41D0F931F930091690210916A0265
:103D800020916B0230916C02602371238223932374
:103D90001F910F910C94C41D0F931F930091690202
:103DA00010916A0220916B0230916C02602771279A
:103DB000822793271F910F910C94C41D08958F9211
:103DC0009F92AF92BF92DF92EF92FF920F931F9359
:103DD000CF93DF9300D000D01F92CDB7DEB78A011A
:103DE0006623C9F180906D0290906E02A0906F02E0
:103DF000B09070028091690290916A02A0916B026A
:103E0000B0916C02882A992AAA2ABB2A8FE1E82E4F
:103E1000F12CD501C4010E2C04C0B695A795979539
:103E200087950A94D2F780FF07C0DE2CB8018E2D4B
:103E30000E94A502019729F481E0E81AF10848F7E9
:103E4000D12C8EE0189FF0011124E00FF11DED5DE3
:103E5000FD4FD08209C08EE0189FF0011124E40FBD
:103E6000F11DED5DFD4FD08009831A8369817A8150
:103E70008D2D0E94A5020F900F900F900F900F9024
:103E8000DF91CF911F910F91FF90EF90DF90BF9046
:103E9000AF909F908F90089590911701992321F0F2
:103EA00090911801911109C02091190130911A01C6
:103EB000F90132969FEF40E01FC0982F9695969596
:103EC00096959F3150F5E0911901F0911A01E90F93
:103ED000F11D877021E030E0A90102C0440F551F99
:103EE0008A95E2F7CA019181892B818308959F3FCA
:103EF00039F04F5F4E3141F051915813F8CF0DC05A
:103F00005111F7CF942FF5CF9F3F39F0F901E90F09
:103F1000F11D97FDFA9582830895089590911701F8
:103F2000992321F090911801911109C02091190154
:103F300030911A01F9013296205E3F4F1FC0982F31
:103F40009695969596959F31F0F4E0911901F09130
:103F50001A01E90FF11D877021E030E0A90102C0CC
:103F6000440F551F8A95E2F7CA01809591818923F4
:103F7000818308953196E217F30729F09081981311
:103F8000F9CF1082F7CF089581E090E0E091190118
:103F9000F0911A01E80FF91F108201968032910505
:103FA000A9F7089580919302089590919302892B27
:103FB0008093930208958095909193028923809332
:103FC00093020895809393020895109293020895A6
:103FD00090919202892B80939202089580959091FE
:103FE000920289238093920208951092920208957A
:103FF00080937102089510927102089580911901C1
:1040000090911A01FC0131969C01205E3F4F80E0A7
:10401000919191118F5FE217F307D1F70895E09125
:104020001901F0911A01809193028083E0911901A6
:10403000F0911A01908180919202892B8083809166
:104040007102882361F0E0911901F0911A019081C9
:10405000892B80830E94FE1F811110927102809132
:10406000190190911A010C947D1408950C946C150B
:10407000089582E084BD93E095BD9AEF97BD80934B
:104080006E0008952FB7F894809195029091960252
:10409000A0919702B09198022FBF08952FB7F8947E
:1040A000609195027091960280919702909198028A
:1040B0002FBF0895CF92DF92EF92FF920F931F933D
:1040C0002FB7F89440919502509196026091970213
:1040D000709198022FBF6A017B01EE24FF248C01AE
:1040E00020E030E0C016D106E206F30610F441509D
:1040F00051099A01281B390BC9011F910F91FF909B
:10410000EF90DF90CF900895CF92DF92EF92FF92E1
:104110000F931F932FB7F894C0909502D0909602FA
:10412000E0909702F09098022FBF97018601061B3E
:10413000170B280B390BC616D706E806F90618F038
:10414000C901B80106C0C901B801615071098109EE
:1041500091091F910F91FF90EF90DF90CF900895FC
:1041600078941F920F920FB60F9211248F939F9302
:10417000AF93BF938091950290919602A091970280
:10418000B09198020196A11DB11D80939502909364
:104190009602A0939702B0939802BF91AF919F911E
:1041A0008F910F900FBE0F901F9018950E94841151
:1041B000F8942FEF87EA91E6215080409040E1F794
:1041C00000C0000087E090EBDC018093E602909352
:1041D000E702A093E802B093E9029CE088E10FB601
:1041E000F894A895809360000FBE90936000FFCF75
:1041F0008091DB02843031F11092990220E488E151
:1042000090E00FB6F894A895809360000FBE2093BD
:1042100060000E940F2883B7817F846083BF83B7CB
:10422000816083BF7894889583B78E7F83BF0FB6F4
:10423000F894A89580916000886180936000109246
:1042400060000FBE0895CF930E946F150E94FD037A
:104250000E947015C0E08C2F0E940005892B29F464
:10426000CF5FC530C1F780E001C081E0CF910895F4
:104270000E94B8190C9452291F920F920FB60F92F8
:1042800011248F939F93AF93BF93809199028111D3
:1042900013C08091950290919602A0919702B091DF
:1042A00098024196A11DB11D8093950290939602AC
:1042B000A0939702B0939802BF91AF919F918F9175
:1042C0000F900FBE0F901F90189580E090E008951A
:1042D000AF92BF92CF92DF92EF92FF920F931F9314
:1042E000CF937C01C0E0CC24C394D12C8C2F0E94AE
:1042F00000055C0100E010E0C601002E02C0880F3E
:10430000991F0A94E2F78A219B21892BB1F0602F33
:104310007C2F80E00E94A5029C018E159F0559F01C
:10432000832F807E932F907C11F0803A31F430E01F
:104330002E153F0511F481E009C00F5F1F4F0E30AD
:104340001105D1F6CF5FC53089F680E0CF911F917E
:104350000F91FF90EF90DF90CF90BF90AF900895B6
:10436000CF93DF93EC018CE290E00E9468218823D8
:1043700029F0CE01DF91CF910C94682180E0DF918C
:10438000CF910895CF930E942723811102C00E94EC
:104390000823C5E6C15049F00E94FD038FE39CE964
:1043A0000197F1F700C00000F5CF89E290E00E948C
:1043B000B02181112BC18AE290E00E94B0218111CD
:1043C0000E94082385E090E00E94B02181110E94A4
:1043D000D6200E9438200E9432238093940287E0E6
:1043E00090E00E94B0218823C1F18BE190E00E940F
:1043F000B021882351F08091940281FB222720F97B
:1044000091E0922790FB81F90FC08EE090E00E942E
:10441000B021882361F08091940282FB222720F949
:1044200091E0922790FB82F98093940216C080E17C
:1044300090E00E94B02190919402882341F093FB78
:10444000222720F981E0822780FB93F904C0892F7D
:10445000809580FB90F990939402809194020E9441
:1044600036230E9444238093E40280EE90E00E9471
:10447000B021882341F08091E402982F909590FB21
:1044800080F98093E40289E390E00E94B0218823C0
:1044900059F08091E40281FB222720F991E09227D4
:1044A00090FB81F98093E40282EE90E00E94B021BB
:1044B000882359F08091E40282FB222720F991E0C1
:1044C000922790FB82F98093E40286EE90E00E94AE
:1044D000B021882359F08091E40283FB222720F940
:1044E00091E0922790FB83F98093E40283EE90E0C1
:1044F0000E94B021882359F08091E40284FB222796
:1045000020F991E0922790FB84F98093E40285E3FF
:1045100090E00E94B021882359F08091E40285FB4D
:10452000222720F991E0922790FB85F98093E402FD
:1045300081E390E00E94B021882359F08091E40249
:1045400086FB222720F991E0922790FB86F9809341
:10455000E40281E190E00E94B021882359F080912B
:10456000E40287FB222720F991E0922790FB87F94C
:104570008093E4028091E4020E9448238091E40247
:1045800087FB882780F98093180187E290E00E94DA
:10459000B021C82F8EE190E00E94B0218111C2604D
:1045A0008FE190E00E94B0218111C46080E290E030
:1045B0000E94B0218111C86081E290E00E94B02188
:1045C0008111C06182E290E00E94B0218111C0623D
:1045D00083E290E00E94B0218111C06484E290E007
:1045E0000E94B021882311F0C06802C0CC2329F0BA
:1045F0008C2F0E943F236C2F03C00E943B23682F07
:1046000070E080E090E0CF910C94CF1DCF910895A1
:104610006DEE7EEF80E090E00E94C32B60E082E0D0
:1046200090E00E94B52B60E083E090E00E94B52B03
:1046300060E084E090E00E94B52B60E085E090E0CF
:104640000E94B52B60E086E090E00C94B52B80E0F2
:1046500090E00E94912B21E08D3E9E4F09F020E0DA
:10466000822F089582E090E00C94832B682F82E0E3
:1046700090E00C94B52B83E090E00C94832B682F92
:1046800083E090E00C94B52B84E090E00C94832BB5
:10469000682F84E090E00C94B52B86E090E00C94B9
:1046A000832B682F86E090E00C94B52B80919E02BE
:1046B00080FF0BC060911E0185E0689FB00111244E
:1046C00075956795759567952BC081FF09C06091B9
:1046D0001E0185E0689FB00111247595679520C083
:1046E00082FF07C060911E0185E0689FB001112420
:1046F00017C090919F029923D1F060911D019617E8
:1047000088F720911E0185E0289F90011124929F37
:10471000A001939F500D112470E0CA010E94692BE3
:104720006038710540F46115710539F002C065E02B
:1047300070E0862F08958FE7089581E008958091B5
:104740009E0280FF08C060911C0170E0759567951E
:104750007595679521C081FF06C060911C0170E0CE
:104760007595679519C082FF04C060911C0170E0C7
:1047700010C090919F029923C1F060911B01961780
:10478000A0F780911C01899FC001112470E00E9454
:10479000692B6038710528F46115710521F0862FA9
:1047A00008958FE7089581E0089561E070E0F4CF07
:1047B000803F21F40E945623819504C0813F29F453
:1047C0000E9456238093A2020895823F21F40E9402
:1047D0005623819504C0833F29F40E945623809379
:1047E000A1020895893F19F40E949F2305C08A3FC2
:1047F00031F40E949F2381958093A30208958B3FFB
:1048000021F40E949F23819504C08C3F29F40E94CB
:104810009F238093A4020895843F21F48091A002F5
:10482000816017C0853F21F48091A002826011C091
:10483000863F21F48091A00284600BC0873F21F461
:104840008091A002886005C0883F31F48091A00269
:1048500080618093A00208958D3F21F480919E0293
:1048600081600BC08E3F21F480919E02826005C062
:104870008F3F29F480919E02846080939E02089568
:10488000803F39F48091A20287FF6CC01092A2028F
:1048900069C0813F29F48091A2021816BCF362C05E
:1048A0009091A102823F29F497FF5CC01092A1026F
:1048B00059C0833F19F41916CCF354C0893F41F411
:1048C0008091A30218160CF04DC01092A3024AC0AA
:1048D0008A3F29F48091A30287FF44C0F6CF8B3F23
:1048E00039F48091A40287FF3DC01092A4023AC01F
:1048F0008C3F29F48091A4021816BCF333C0843F86
:1049000021F48091A0028E7F17C0853F21F4809111
:10491000A0028D7F11C0863F21F48091A0028B7F81
:104920000BC0873F21F48091A002877F05C0883F9C
:1049300031F48091A0028F7E8093A00213C08D3F3E
:1049400021F480919E028E7F0BC08E3F21F48091D6
:104950009E028D7F05C08F3F29F480919E028B7F40
:1049600080939E028091A10281110EC08091A202CB
:1049700081110AC08091A302811106C08091A40216
:10498000811102C010929F02089580EA92E00E9475
:1049900088140E94422090939B0280939A0208956B
:1049A0000F931F93CF93DF9380919C0290919D0270
:1049B0000E945A200B97A8F18091AE01882389F1BB
:1049C00003EB11E0C4E0F80181918F01882351F0DD
:1049D0008C2F0E944C1F0E940F208C2F0E948E1F34
:1049E0000E940F20CF5FC63471F78091AF018823FA
:1049F00091F08091A00281608093A00280EA92E011
:104A00000E9488148091A0028E7F8093A00280EA89
:104A100092E00E9488140E94422090939D0280930D
:104A20009C0280919A0290919B020E945A20AC01B4
:104A300090919F02992321F020911F0130E006C040
:104A400020912001FAE02F9F900111244217530773
:104A500008F486C08091A102C091A202D091A30265
:104A60001091A402811107C0C11176C0D11174C088
:104A7000111172C075C09F3F19F09F5F90939F0204
:104A8000181624F40E9456238093A1028091A1025B
:104A900087FF05C00E94562381958093A1021C16B2
:104AA00024F40E9456238093A2028091A20287FFE1
:104AB00005C00E94562381958093A2026091A102B5
:104AC000662331F1C091A202CC2311F1062E000C15
:104AD000770B880B990B0E94332A23E333E343E3DC
:104AE0005FE30E949C2A0E94FB296093A1026C2F25
:104AF000CC0F770B880B990B0E94332A23E333E307
:104B000043E35FE30E949C2A0E94FB296093A20278
:104B10001D1624F40E949F238093A3028091A30278
:104B200087FF05C00E949F2381958093A3021116E1
:104B300024F40E949F238093A4028091A40287FF03
:104B400005C00E949F2381958093A402DF91CF919D
:104B50001F910F910C94C5249F3F09F08ECF96CFE3
:104B6000DF91CF911F910F910895E0EAF2E085E087
:104B7000DF011D928A95E9F710929F0210929E0222
:104B80000895833081F128F4813059F08230D1F0DA
:104B90000895853009F449C0B8F1863009F456C04B
:104BA000089580912001262F30E0280F311D2F3FDE
:104BB000310524F4680F6093200108958FEF8093EE
:104BC0002001089580911F01262F30E0280F311D0C
:104BD0002F3F310524F4680F60931F0108958FEF74
:104BE00080931F01089580911E01262F30E0280F29
:104BF000311D2F3F310524F4680F60931E01089585
:104C00008FEF80931E01089580911D01262F30E0C3
:104C1000280F311D2F3F310524F4680F60931D01CB
:104C200008958FEF80931D01089580911C01262F18
:104C300030E0280F311D2F3F310524F4680F6093B9
:104C40001C0108958FEF80931C01089580911B0132
:104C5000262F30E0280F311D2F3F310524F4680F37
:104C600060931B0108958FEF80931B01089583309B
:104C700011F128F4813049F0823091F008958530A7
:104C800081F120F18630C1F10895809120016817EB
:104C900020F4861B8093200108951092200108952E
:104CA00080911F01681720F4861B80931F010895CF
:104CB00010921F01089580911E01681720F4861B31
:104CC00080931E01089510921E01089580911D0188
:104CD000681720F4861B80931D01089510921D0112
:104CE000089580911C01681720F4861B80931C0195
:104CF000089510921C01089580911B01681720F4FB
:104D0000861B80931B01089510921B0108950F9339
:104D10001F938B3109F475C0A0F58E3009F484C05F
:104D2000C0F4873009F462C068F4863009F0AFC07F
:104D300080919402817F8E7F8093940281E08093A2
:104D4000A602A6C0883009F44AC08B3009F49DC081
:104D50009EC0813109F472C068F4803109F097C0B7
:104D60008091940283FB222720F991E0922790FB07
:104D700083F950C0863109F488C0893109F485C0AF
:104D800086C0853309F468C068F4873209F464C0CA
:104D900028F48E3108F47BC08D5164C0893209F447
:104DA0005BC075C0833438F48A3308F05AC0883346
:104DB00009F46BC06CC0833409F44EC0883409F028
:104DC00066C00E94B8190FEF13ED20E301501040A8
:104DD0002040E1F700C000000E94D62056C00E948B
:104DE00032230E9444230E944D234FC0909194028D
:104DF000892F817090FF12C0917F9E7F90939402C3
:104E000047C08091940281FB222720F991E09227EC
:104E100090FB81F9809394029923B9F180919402D7
:104E200081608093940231C08091940282FB22279A
:104E300020F991E0922790FB82F9ECCF0E94B819FB
:104E40000E946C148D50914001F59091180181E001
:104E500089278093180119C061E070E080E090E03C
:104E600010C0895341E050E060E070E08A019B018E
:104E700004C0000F111F221F331F8A95D2F7C901EA
:104E8000B8010E94CF1D0E94B81981E001C080E0E6
:104E90001F910F91089580E00895CF93C82F8091BE
:104EA000A602813069F018F08230C9F184C0E09127
:104EB0001901F0911A018081823209F07EC007C089
:104EC000E0911901F0911A018081823261F48C2FF6
:104ED0000E94710D811104C08C2F0E9487261DC075
:104EE00081E090E01AC08C2F0E944B27811114C0E2
:104EF000C43179F048F4CB3079F0C03109F061C0A9
:104F000082E08093A60208C0C93219F0C83321F0AC
:104F100058C01092A60255C081E0817054C0C932B9
:104F200091F120F5C43179F1B0F4C73009F047C0F0
:104F30008EE18093200182E380931F018AE08093B9
:104F40001E0184E180931D0188E080931C0188E2AA
:104F500080931B0134C0CE51C63088F5EC2FF0E0B1
:104F6000EA5CFE4F80818093A50229C0CE34E9F02F
:104F700020F4CB3421F56AE013C0C13579F0C23595
:104F8000F1F461E00DC08091A502882319F0109220
:104F9000A50215C081E08093A60215C061E006C09D
:104FA0008091A5020E94C1250AC06AE08091A502F5
:104FB0000E94372604C01092A60280E004C081E05F
:104FC00002C080E0AACFCF910895E1E8F0E08081AF
:104FD000886080838081816080838FB7F89493E0BC
:104FE000909389009DE0909388008FBF0E94AE0649
:104FF00081E08093B60208958091B602882371F013
:105000008091880090918900892B41F080916F00F8
:10501000826080936F0082E08093B6020895809151
:10502000B602882389F08091880090918900892BAD
:1050300059F080916F008D7F80936F0081E08093A5
:10504000B60280E00C94B20608958091B5028160AA
:105050008093B50208951092B5028091B60288231C
:1050600019F080E00C94B20608958093B30208957D
:10507000E82FF0E0ED54FD4F2081422F50E08FEFFC
:1050800090E0861B9109841795071CF48FEF8083AD
:105090000895620F60830895682F80E00C9438288B
:1050A000E82FF0E0ED54FD4F8081861710F4108258
:1050B0000895861B80830895682F80E00C94502803
:1050C0008091B20281608093B20208951092B20280
:1050D00008954091B10221E030E0662341F001C023
:1050E000220F8A95EAF7242B2093B1020895B90183
:1050F00002C0660F771F8A95E2F7CB018095842363
:105100008093B1020895682F80E00C946928809301
:10511000B00208958093AF0208958091AE0281603D
:105120008093AE0208951092AE021092AD020895DF
:105130008093AC0208951F920F920FB60F92112424
:105140002F933F934F935F936F937F938F939F938F
:10515000AF93BF93EF93FF938091A9028F5F8093EA
:10516000A9029091B50290FF16C081110BC08091E9
:10517000B402882319F080E00E94B0068091B30247
:105180008093B4029091A9028091B402981303C055
:1051900080E00E94B2068091A9029091B402811130
:1051A00002C097FD04C089136CC087FD6AC01092CD
:1051B00021019091B202992329F18091A8028F5F79
:1051C0008093A8022091B0022817E0F41092A80260
:1051D00090FF14C08091AF02882321F0815080930A
:1051E000AF020CC08091B10261E080FF04C080E09A
:1051F0000E94502803C080E00E94382884EB92E08F
:105200000E94F6062091AE022223C9F18091A702E6
:105210008F5F8093A7029091AC02981780F510924F
:10522000A70220FF28C08091AB02E82FF0E0E550F4
:10523000FC4FE491E093B3029091AA0290FF12C058
:1052400081110EC09E7F9093AA028091AD0280FFD3
:1052500012C02E7F2093AE028E7F8093AD020BC0D2
:10526000815007C08F3721F491609093AA0203C048
:105270008F5F8093AB0284EB92E00E94F7060E945E
:10528000F406FF91EF91BF91AF919F918F917F9124
:105290006F915F914F913F912F910F900FBE0F90A3
:1052A0001F9018950E942723811102C00E94082395
:1052B0000E944D238093E502811102C081E005C068
:1052C00080FF02C0869501C080E00C945E0680914C
:1052D000E502982F9695292F30E0283031054CF4BF
:1052E0009F5F990F8170892B81608093E5020E94F6
:1052F00051238091E50286950C945E068091E5022B
:1053000080FF1EC0982F9695292F30E0223031055E
:1053100094F09158990F8170892B8093E5028E7FCC
:1053200091E009F490E08091E50290FB80F9809390
:10533000E5020E9451238091E50286950C945E0659
:1053400008958091E502982F9095917090FB80F9D7
:105350008093E502992339F0982F9E7F21F4817084
:1053600082608093E5028091E5020E945123809142
:10537000E50280FF02C0869501C080E00C945E06C5
:105380009091E502892F86958F5F8F779170893094
:1053900028F4880F892B8093E50202C09093E502E0
:1053A0008091E5028E7F91E009F490E08091E50222
:1053B00090FB80F98093E5020E9451238091E502E1
:1053C00086950C945E06880F9091E5029170892B6A
:1053D0008093E5028E7F91E009F490E08091E502F0
:1053E00090FB80F98093E5020E9451238091E502B1
:1053F00086950C945E060E94022A6894B1110C9462
:10540000912A08950E94762A88F09F5798F0B92F24
:105410009927B751B0F0E1F0660F771F881F991FE9
:105420001AF0BA95C9F714C0B13091F00E94902AD1
:10543000B1E008950C94902A672F782F8827B85FE1
:1054400039F0B93FCCF3869577956795B395D9F741
:105450003EF490958095709561957F4F8F4F9F4F4B
:105460000895E89409C097FB3EF490958095709557
:1054700061957F4F8F4F9F4F9923A9F0F92F96E9A0
:10548000BB279395F695879577956795B795F11115
:10549000F8CFFAF4BB0F11F460FF1BC06F5F7F4FB2
:1054A0008F4F9F4F16C0882311F096E911C07723C4
:1054B00021F09EE8872F762F05C0662371F096E8CD
:1054C000862F70E060E02AF09A95660F771F881F9C
:1054D000DAF7880F9695879597F9089557FD9058B4
:1054E000440F551F59F05F3F71F04795880F97FBA8
:1054F000991F61F09F3F79F0879508951216130662
:105500001406551FF2CF4695F1DF08C01616170690
:105510001806991FF1CF86957105610508940895C5
:10552000E894BB2766277727CB0197F908950E9457
:10553000092B08F48FEF08950E94AF2A0C94442B96
:105540000E94362B38F00E943D2B20F0952311F05D
:105550000C942D2B0C94332B11240C94912A0E9423
:105560006E2A70F3959FC1F3950F50E0551F629F0F
:10557000F001729FBB27F00DB11D639FAA27F00DAC
:10558000B11DAA1F649F6627B00DA11D661F829FD3
:105590002227B00DA11D621F739FB00DA11D621FB8
:1055A000839FA00D611D221F749F3327A00D611DD5
:1055B000231F849F600D211D822F762F6A2F1124B7
:1055C0009F5750409AF0F1F088234AF0EE0FFF1FEA
:1055D000BB1F661F771F881F91505040A9F79E3F41
:1055E000510580F00C942D2B0C94912A5F3FE4F32D
:1055F000983ED4F3869577956795B795F795E79597
:105600009F5FC1F7FE2B880F911D9695879597F99F
:105610000895990F0008550FAA0BE0E8FEEF161643
:105620001706E807F907C0F012161306E407F50796
:1056300098F0621B730B840B950B39F40A2661F00A
:10564000232B242B252B21F408950A2609F4A140AD
:10565000A6958FEF811D811D089597F99F6780E8BA
:1056600070E060E008959FEF80EC089500240A94B4
:105670001616170618060906089500240A9412162D
:105680001306140605060895092E0394000C11F460
:10569000882352F0BB0F40F4BF2B11F460FF04C00D
:1056A0006F5F7F4F8F4F9F4F0895AA1BBB1B51E128
:1056B00007C0AA1FBB1FA617B70710F0A61BB70B82
:1056C000881F991F5A95A9F780959095BC01CD0127
:1056D000089597FB072E16F4009407D077FD09D0A4
:1056E0000E94552B07FC05D03EF4909581959F4F65
:1056F0000895709561957F4F0895EE0FFF1F0590F7
:10570000F491E02D0994F999FECF92BD81BDF89AEC
:10571000992780B50895A6E1B0E044E050E00C94EC
:10572000CA2BA8E1B0E042E050E00C94CA2B262F2F
:10573000F999FECF92BD81BDF89A019700B4021687
:1057400039F01FBA20BD0FB6F894FA9AF99A0FBE35
:1057500008950396272F0E94982B0E94972B252FA0
:105760000E94982B242F0C94982B262FF999FECF6A
:105770001FBA92BD81BD20BD0FB6F894FA9AF99A6E
:105780000FBE019608950E94B52B272F0C94B62BBF
:10579000DC01CB01FC01F999FECF06C0F2BDE1BDF1
:1057A000F89A319600B40D9241505040B8F70895E0
:0457B000F894FFCF9B
:1057B400050104F60BB50CF90BFA0BFB0BFB0D56AC
:1057C4000E330EFE0DFF0D010172022808140A3279
:1057D4001E01404D1B39BB036E0353031A03AD0274
:1057E400C602DF02F80201020304050607080900E5
:10680000BF55EA44E944E2440400050006000700DD
:10681000080009000A000B000C000D000E000F001C
:1068200010001100120013001400150016001700CC
:10683000180019001A001B001C001D001E001F007C
:10684000200001F02200230024002500260027005C
:10685000280000F049002B002C002D002E002F00F6
:10686000300031003100330034002A003600370098
:106870003800E0003A003B003C003D003E003F0095
:1068800040004100420043004400450046004700EC
:10689000480049004A004B00E5004D004E004F0003
:1068A00050005100F1A1530054005500560057000C
:1068B000580059005A005B005C005D005E005F00FC
:1068C00060006100620063006400510085006700A1
:1068D000F450F550F650F750F850F950FA506F0058
:1068E000700071007200730089004E008A008B00F6
:1068F000E000E100E200E3004F005200E600F1A1F9
:106900002F00010001000100F250B540CD40F350CE
:1069100000D00100010001000100010001000100A0
:1069200004F003F00100460002D001D0F15003D082
:106930006F40B640F050B740704083413A003B0092
:106940003C003D003E003F0040004100420043004B
:106950000100350048000100010044004500F450EA
:10696000F550924192414A00F8504C0001004D0010
:10697000F750390001000100010001000100010091
:1069800001000100010001000100010001000100FF
:106990000100010001000100010001000100E944C3
:1069A000E244EA440100010001000100010001008D
:1069B00001000100010001000100010001000100CF
:1069C00001000100010001000100EA400100010096
:1069D00001000100010001000100010001000100AF
:1069E000010001000100010049004B00010001000D
:1069F00001000100010001000100E9400100010067
:106A0000110001000100010001000100010001006E
:106A1000010001000100010001000100010001006E
:106A2000010001000100010001000100010001005E
:106A3000010001000100010001000100010001004E
:106A4000010001000100010001000100010001003E
:106A5000010001000100010001000100010001002E
:106A6000010001000100010001000100010001001E
:106A7000010001000100010001000100010001000E
:106A800001000100010001000100010001000100FE
:106A900001000100010001000100010001000100EE
:106AA00001000100010001000100010001000100DE
:106AB00001000100010001000100010001000100CE
:106AC00001000100010001000100010001000100BE
:106AD00001000100010001000100010001000100AE
:106AE000010001000100010001000100010001009E
